{
  "contractName": "FansToken",
  "abi": [
    {
      "inputs": [
        {
          "internalType": "string",
          "name": "name",
          "type": "string"
        },
        {
          "internalType": "string",
          "name": "symbol",
          "type": "string"
        },
        {
          "internalType": "uint256",
          "name": "emissionStartTimestamp",
          "type": "uint256"
        }
      ],
      "stateMutability": "nonpayable",
      "type": "constructor"
    },
    {
      "anonymous": false,
      "inputs": [
        {
          "indexed": true,
          "internalType": "address",
          "name": "owner",
          "type": "address"
        },
        {
          "indexed": true,
          "internalType": "address",
          "name": "spender",
          "type": "address"
        },
        {
          "indexed": false,
          "internalType": "uint256",
          "name": "value",
          "type": "uint256"
        }
      ],
      "name": "Approval",
      "type": "event"
    },
    {
      "anonymous": false,
      "inputs": [
        {
          "indexed": true,
          "internalType": "address",
          "name": "from",
          "type": "address"
        },
        {
          "indexed": true,
          "internalType": "address",
          "name": "to",
          "type": "address"
        },
        {
          "indexed": false,
          "internalType": "uint256",
          "name": "value",
          "type": "uint256"
        }
      ],
      "name": "Transfer",
      "type": "event"
    },
    {
      "inputs": [],
      "name": "INITIAL_ALLOTMENT",
      "outputs": [
        {
          "internalType": "uint256",
          "name": "",
          "type": "uint256"
        }
      ],
      "stateMutability": "view",
      "type": "function"
    },
    {
      "inputs": [],
      "name": "PERCENTAGE_OF_ROYALTY",
      "outputs": [
        {
          "internalType": "uint256",
          "name": "",
          "type": "uint256"
        }
      ],
      "stateMutability": "view",
      "type": "function"
    },
    {
      "inputs": [],
      "name": "PRE_REVEAL_MULTIPLIER",
      "outputs": [
        {
          "internalType": "uint256",
          "name": "",
          "type": "uint256"
        }
      ],
      "stateMutability": "view",
      "type": "function"
    },
    {
      "inputs": [],
      "name": "SECONDS_IN_A_DAY",
      "outputs": [
        {
          "internalType": "uint256",
          "name": "",
          "type": "uint256"
        }
      ],
      "stateMutability": "view",
      "type": "function"
    },
    {
      "inputs": [],
      "name": "emissionEnd",
      "outputs": [
        {
          "internalType": "uint256",
          "name": "",
          "type": "uint256"
        }
      ],
      "stateMutability": "view",
      "type": "function"
    },
    {
      "inputs": [],
      "name": "emissionPerDay",
      "outputs": [
        {
          "internalType": "uint256",
          "name": "",
          "type": "uint256"
        }
      ],
      "stateMutability": "view",
      "type": "function"
    },
    {
      "inputs": [],
      "name": "emissionStart",
      "outputs": [
        {
          "internalType": "uint256",
          "name": "",
          "type": "uint256"
        }
      ],
      "stateMutability": "view",
      "type": "function"
    },
    {
      "inputs": [],
      "name": "name",
      "outputs": [
        {
          "internalType": "string",
          "name": "",
          "type": "string"
        }
      ],
      "stateMutability": "view",
      "type": "function"
    },
    {
      "inputs": [],
      "name": "symbol",
      "outputs": [
        {
          "internalType": "string",
          "name": "",
          "type": "string"
        }
      ],
      "stateMutability": "view",
      "type": "function"
    },
    {
      "inputs": [],
      "name": "decimals",
      "outputs": [
        {
          "internalType": "uint8",
          "name": "",
          "type": "uint8"
        }
      ],
      "stateMutability": "view",
      "type": "function"
    },
    {
      "inputs": [],
      "name": "totalSupply",
      "outputs": [
        {
          "internalType": "uint256",
          "name": "",
          "type": "uint256"
        }
      ],
      "stateMutability": "view",
      "type": "function"
    },
    {
      "inputs": [
        {
          "internalType": "address",
          "name": "account",
          "type": "address"
        }
      ],
      "name": "balanceOf",
      "outputs": [
        {
          "internalType": "uint256",
          "name": "",
          "type": "uint256"
        }
      ],
      "stateMutability": "view",
      "type": "function"
    },
    {
      "inputs": [
        {
          "internalType": "uint256",
          "name": "tokenIndex",
          "type": "uint256"
        }
      ],
      "name": "lastClaim",
      "outputs": [
        {
          "internalType": "uint256",
          "name": "",
          "type": "uint256"
        }
      ],
      "stateMutability": "view",
      "type": "function"
    },
    {
      "inputs": [
        {
          "internalType": "uint256",
          "name": "tokenIndex",
          "type": "uint256"
        }
      ],
      "name": "accumulated",
      "outputs": [
        {
          "internalType": "uint256",
          "name": "",
          "type": "uint256"
        }
      ],
      "stateMutability": "view",
      "type": "function"
    },
    {
      "inputs": [
        {
          "internalType": "address",
          "name": "masksAddress",
          "type": "address"
        }
      ],
      "name": "setMasksAddress",
      "outputs": [],
      "stateMutability": "nonpayable",
      "type": "function"
    },
    {
      "inputs": [
        {
          "internalType": "uint256[]",
          "name": "tokenIndices",
          "type": "uint256[]"
        }
      ],
      "name": "claim",
      "outputs": [
        {
          "internalType": "uint256",
          "name": "",
          "type": "uint256"
        }
      ],
      "stateMutability": "nonpayable",
      "type": "function"
    },
    {
      "inputs": [
        {
          "internalType": "address",
          "name": "recipient",
          "type": "address"
        },
        {
          "internalType": "uint256",
          "name": "amount",
          "type": "uint256"
        }
      ],
      "name": "transfer",
      "outputs": [
        {
          "internalType": "bool",
          "name": "",
          "type": "bool"
        }
      ],
      "stateMutability": "nonpayable",
      "type": "function"
    },
    {
      "inputs": [
        {
          "internalType": "address",
          "name": "owner",
          "type": "address"
        },
        {
          "internalType": "address",
          "name": "spender",
          "type": "address"
        }
      ],
      "name": "allowance",
      "outputs": [
        {
          "internalType": "uint256",
          "name": "",
          "type": "uint256"
        }
      ],
      "stateMutability": "view",
      "type": "function"
    },
    {
      "inputs": [
        {
          "internalType": "address",
          "name": "spender",
          "type": "address"
        },
        {
          "internalType": "uint256",
          "name": "amount",
          "type": "uint256"
        }
      ],
      "name": "approve",
      "outputs": [
        {
          "internalType": "bool",
          "name": "",
          "type": "bool"
        }
      ],
      "stateMutability": "nonpayable",
      "type": "function"
    },
    {
      "inputs": [
        {
          "internalType": "address",
          "name": "sender",
          "type": "address"
        },
        {
          "internalType": "address",
          "name": "recipient",
          "type": "address"
        },
        {
          "internalType": "uint256",
          "name": "amount",
          "type": "uint256"
        }
      ],
      "name": "transferFrom",
      "outputs": [
        {
          "internalType": "bool",
          "name": "",
          "type": "bool"
        }
      ],
      "stateMutability": "nonpayable",
      "type": "function"
    },
    {
      "inputs": [
        {
          "internalType": "address",
          "name": "spender",
          "type": "address"
        },
        {
          "internalType": "uint256",
          "name": "addedValue",
          "type": "uint256"
        }
      ],
      "name": "increaseAllowance",
      "outputs": [
        {
          "internalType": "bool",
          "name": "",
          "type": "bool"
        }
      ],
      "stateMutability": "nonpayable",
      "type": "function"
    },
    {
      "inputs": [
        {
          "internalType": "uint256",
          "name": "burnQuantity",
          "type": "uint256"
        }
      ],
      "name": "burn",
      "outputs": [
        {
          "internalType": "bool",
          "name": "",
          "type": "bool"
        }
      ],
      "stateMutability": "nonpayable",
      "type": "function"
    },
    {
      "inputs": [
        {
          "internalType": "address",
          "name": "spender",
          "type": "address"
        },
        {
          "internalType": "uint256",
          "name": "subtractedValue",
          "type": "uint256"
        }
      ],
      "name": "decreaseAllowance",
      "outputs": [
        {
          "internalType": "bool",
          "name": "",
          "type": "bool"
        }
      ],
      "stateMutability": "nonpayable",
      "type": "function"
    }
  ],
  "bytecode": "0x608060405262015180600055678ac7230489e8000060035560146007553480156200002957600080fd5b5060405162002f9838038062002f98833981810160405260608110156200004f57600080fd5b81019080805160405193929190846401000000008211156200007057600080fd5b838201915060208201858111156200008757600080fd5b8251866001820283011164010000000082111715620000a557600080fd5b8083526020830192505050908051906020019080838360005b83811015620000db578082015181840152602081019050620000be565b50505050905090810190601f168015620001095780820380516001836020036101000a031916815260200191505b50604052602001805160405193929190846401000000008211156200012d57600080fd5b838201915060208201858111156200014457600080fd5b82518660018202830111640100000000821117156200016257600080fd5b8083526020830192505050908051906020019080838360005b83811015620001985780820151818401526020810190506200017b565b50505050905090810190601f168015620001c65780820380516001836020036101000a031916815260200191505b50604052602001805190602001909291905050508260099080519060200190620001f292919062000245565b5081600a90805190602001906200020b92919062000245565b506012600b60006101000a81548160ff021916908360ff160217905550806001819055506312cc03008101600281905550505050620002eb565b828054600181600116156101000203166002900490600052602060002090601f016020900481019282601f106200028857805160ff1916838001178555620002b9565b82800160010185558215620002b9579182015b82811115620002b85782518255916020019190600101906200029b565b5b509050620002c89190620002cc565b5090565b5b80821115620002e7576000816000905550600101620002cd565b5090565b612c9d80620002fb6000396000f3fe608060405234801561001057600080fd5b506004361061014d5760003560e01c806370a08231116100c3578063a9059cbb1161007c578063a9059cbb146106ad578063b551b82f14610711578063c607cde71461072f578063dd62ed3e14610771578063f9cfa06f146107e9578063fd817fcb146108075761014d565b806370a08231146104ee57806373422b31146105465780637d6a0d04146105645780638368909c146105a857806395d89b41146105c6578063a457c2d7146106495761014d565b8063367df16511610115578063367df165146102fc578063395093511461031a5780633d3728b51461037e57806342966c68146103c0578063513da948146104045780636ba4c138146104225761014d565b806306fdde0314610152578063095ea7b3146101d557806318160ddd1461023957806323b872dd14610257578063313ce567146102db575b600080fd5b61015a610825565b6040518080602001828103825283818151815260200191508051906020019080838360005b8381101561019a57808201518184015260208101905061017f565b50505050905090810190601f1680156101c75780820380516001836020036101000a031916815260200191505b509250505060405180910390f35b610221600480360360408110156101eb57600080fd5b81019080803573ffffffffffffffffffffffffffffffffffffffff169060200190929190803590602001909291905050506108c7565b60405180821515815260200191505060405180910390f35b6102416108e5565b6040518082815260200191505060405180910390f35b6102c36004803603606081101561026d57600080fd5b81019080803573ffffffffffffffffffffffffffffffffffffffff169060200190929190803573ffffffffffffffffffffffffffffffffffffffff169060200190929190803590602001909291905050506108ef565b60405180821515815260200191505060405180910390f35b6102e3610a1e565b604051808260ff16815260200191505060405180910390f35b610304610a35565b6040518082815260200191505060405180910390f35b6103666004803603604081101561033057600080fd5b81019080803573ffffffffffffffffffffffffffffffffffffffff16906020019092919080359060200190929190505050610a42565b60405180821515815260200191505060405180910390f35b6103aa6004803603602081101561039457600080fd5b8101908080359060200190929190505050610af5565b6040518082815260200191505060405180910390f35b6103ec600480360360208110156103d657600080fd5b8101908080359060200190929190505050610d85565b60405180821515815260200191505060405180910390f35b61040c610d9a565b6040518082815260200191505060405180910390f35b6104d86004803603602081101561043857600080fd5b810190808035906020019064010000000081111561045557600080fd5b82018360208201111561046757600080fd5b8035906020019184602083028401116401000000008311171561048957600080fd5b919080806020026020016040519081016040528093929190818152602001838360200280828437600081840152601f19601f820116905080830192505050505050509192919290505050610da0565b6040518082815260200191505060405180910390f35b6105306004803603602081101561050457600080fd5b81019080803573ffffffffffffffffffffffffffffffffffffffff16906020019092919050505061178c565b6040518082815260200191505060405180910390f35b61054e6117d5565b6040518082815260200191505060405180910390f35b6105a66004803603602081101561057a57600080fd5b81019080803573ffffffffffffffffffffffffffffffffffffffff1690602001909291905050506117da565b005b6105b06118e2565b6040518082815260200191505060405180910390f35b6105ce6118e8565b6040518080602001828103825283818151815260200191508051906020019080838360005b8381101561060e5780820151818401526020810190506105f3565b50505050905090810190601f16801561063b5780820380516001836020036101000a031916815260200191505b509250505060405180910390f35b6106956004803603604081101561065f57600080fd5b81019080803573ffffffffffffffffffffffffffffffffffffffff1690602001909291908035906020019092919050505061198a565b60405180821515815260200191505060405180910390f35b6106f9600480360360408110156106c357600080fd5b81019080803573ffffffffffffffffffffffffffffffffffffffff16906020019092919080359060200190929190505050611a57565b60405180821515815260200191505060405180910390f35b610719611a75565b6040518082815260200191505060405180910390f35b61075b6004803603602081101561074557600080fd5b8101908080359060200190929190505050611a7b565b6040518082815260200191505060405180910390f35b6107d36004803603604081101561078757600080fd5b81019080803573ffffffffffffffffffffffffffffffffffffffff169060200190929190803573ffffffffffffffffffffffffffffffffffffffff169060200190929190505050611ecb565b6040518082815260200191505060405180910390f35b6107f1611f52565b6040518082815260200191505060405180910390f35b61080f611f58565b6040518082815260200191505060405180910390f35b606060098054600181600116156101000203166002900480601f0160208091040260200160405190810160405280929190818152602001828054600181600116156101000203166002900480156108bd5780601f10610892576101008083540402835291602001916108bd565b820191906000526020600020905b8154815290600101906020018083116108a057829003601f168201915b5050505050905090565b60006108db6108d4611f5e565b8484611f66565b6001905092915050565b6000600854905090565b60006108fc84848461215d565b600b60019054906101000a900473ffffffffffffffffffffffffffffffffffffffff1673ffffffffffffffffffffffffffffffffffffffff163373ffffffffffffffffffffffffffffffffffffffff1614610a1357610a128461095d611f5e565b610a0d85604051806060016040528060288152602001612bb160289139600560008b73ffffffffffffffffffffffffffffffffffffffff1673ffffffffffffffffffffffffffffffffffffffff16815260200190815260200160002060006109c3611f5e565b73ffffffffffffffffffffffffffffffffffffffff1673ffffffffffffffffffffffffffffffffffffffff168152602001908152602001600020546124229092919063ffffffff16565b611f66565b5b600190509392505050565b6000600b60009054906101000a900460ff16905090565b685150ae84a8cdf0000081565b6000610aeb610a4f611f5e565b84610ae68560056000610a60611f5e565b73ffffffffffffffffffffffffffffffffffffffff1673ffffffffffffffffffffffffffffffffffffffff16815260200190815260200160002060008973ffffffffffffffffffffffffffffffffffffffff1673ffffffffffffffffffffffffffffffffffffffff168152602001908152602001600020546124e290919063ffffffff16565b611f66565b6001905092915050565b60008073ffffffffffffffffffffffffffffffffffffffff16600b60019054906101000a900473ffffffffffffffffffffffffffffffffffffffff1673ffffffffffffffffffffffffffffffffffffffff16636352211e846040518263ffffffff1660e01b81526004018082815260200191505060206040518083038186803b158015610b8157600080fd5b505afa158015610b95573d6000803e3d6000fd5b505050506040513d6020811015610bab57600080fd5b810190808051906020019092919050505073ffffffffffffffffffffffffffffffffffffffff161415610c46576040517f08c379a00000000000000000000000000000000000000000000000000000000081526004018080602001828103825260198152602001807f4f776e65722063616e6e6f74206265203020616464726573730000000000000081525060200191505060405180910390fd5b600b60019054906101000a900473ffffffffffffffffffffffffffffffffffffffff1673ffffffffffffffffffffffffffffffffffffffff166318160ddd6040518163ffffffff1660e01b815260040160206040518083038186803b158015610cae57600080fd5b505afa158015610cc2573d6000803e3d6000fd5b505050506040513d6020811015610cd857600080fd5b81019080805190602001909291905050508210610d40576040517f08c379a0000000000000000000000000000000000000000000000000000000008152600401808060200182810382526024815260200180612b246024913960400191505060405180910390fd5b60008060066000858152602001908152602001600020541415610d6557600154610d7a565b60066000848152602001908152602001600020545b905080915050919050565b6000610d91338361256a565b60019050919050565b60015481565b60006001544211610e19576040517f08c379a000000000000000000000000000000000000000000000000000000000815260040180806020018281038252601c8152602001807f456d697373696f6e20686173206e6f742073746172746564207965740000000081525060200191505060405180910390fd5b600080600b60019054906101000a900473ffffffffffffffffffffffffffffffffffffffff1673ffffffffffffffffffffffffffffffffffffffff16636352211e85600081518110610e6757fe5b60200260200101516040518263ffffffff1660e01b81526004018082815260200191505060206040518083038186803b158015610ea357600080fd5b505afa158015610eb7573d6000803e3d6000fd5b505050506040513d6020811015610ecd57600080fd5b8101908080519060200190929190505050905060005b845181101561170057600b60019054906101000a900473ffffffffffffffffffffffffffffffffffffffff1673ffffffffffffffffffffffffffffffffffffffff166318160ddd6040518163ffffffff1660e01b815260040160206040518083038186803b158015610f5457600080fd5b505afa158015610f68573d6000803e3d6000fd5b505050506040513d6020811015610f7e57600080fd5b8101908080519060200190929190505050858281518110610f9b57fe5b602002602001015110610ff9576040517f08c379a0000000000000000000000000000000000000000000000000000000008152600401808060200182810382526024815260200180612b246024913960400191505060405180910390fd5b60006001820190505b85518110156110b45785818151811061101757fe5b602002602001015186838151811061102b57fe5b602002602001015114156110a7576040517f08c379a00000000000000000000000000000000000000000000000000000000081526004018080602001828103825260158152602001807f4475706c696361746520746f6b656e20696e646578000000000000000000000081525060200191505060405180910390fd5b8080600101915050611002565b5060008582815181106110c357fe5b602002602001015190506000600b60019054906101000a900473ffffffffffffffffffffffffffffffffffffffff1673ffffffffffffffffffffffffffffffffffffffff16632754b5d1836040518263ffffffff1660e01b81526004018082815260200191505060206040518083038186803b15801561114257600080fd5b505afa158015611156573d6000803e3d6000fd5b505050506040513d602081101561116c57600080fd5b81019080805190602001909291905050509050600073ffffffffffffffffffffffffffffffffffffffff168173ffffffffffffffffffffffffffffffffffffffff161415611307573373ffffffffffffffffffffffffffffffffffffffff16600b60019054906101000a900473ffffffffffffffffffffffffffffffffffffffff1673ffffffffffffffffffffffffffffffffffffffff16636352211e846040518263ffffffff1660e01b81526004018082815260200191505060206040518083038186803b15801561123e57600080fd5b505afa158015611252573d6000803e3d6000fd5b505050506040513d602081101561126857600080fd5b810190808051906020019092919050505073ffffffffffffffffffffffffffffffffffffffff1614611302576040517f08c379a00000000000000000000000000000000000000000000000000000000081526004018080602001828103825260178152602001807f53656e646572206973206e6f7420746865206f776e657200000000000000000081525060200191505060405180910390fd5b611456565b8073ffffffffffffffffffffffffffffffffffffffff16600b60019054906101000a900473ffffffffffffffffffffffffffffffffffffffff1673ffffffffffffffffffffffffffffffffffffffff16632754b5d1846040518263ffffffff1660e01b81526004018082815260200191505060206040518083038186803b15801561139157600080fd5b505afa1580156113a5573d6000803e3d6000fd5b505050506040513d60208110156113bb57600080fd5b810190808051906020019092919050505073ffffffffffffffffffffffffffffffffffffffff1614611455576040517f08c379a00000000000000000000000000000000000000000000000000000000081526004018080602001828103825260178152602001807f53656e646572206973206e6f7420746865206f776e657200000000000000000081525060200191505060405180910390fd5b5b600061146183611a7b565b90506000600b60019054906101000a900473ffffffffffffffffffffffffffffffffffffffff1673ffffffffffffffffffffffffffffffffffffffff1663f2560207856040518263ffffffff1660e01b81526004018082815260200191505060206040518083038186803b1580156114d857600080fd5b505afa1580156114ec573d6000803e3d6000fd5b505050506040513d602081101561150257600080fd5b81019080805190602001909291905050509050600073ffffffffffffffffffffffffffffffffffffffff168173ffffffffffffffffffffffffffffffffffffffff161415801561162b57508073ffffffffffffffffffffffffffffffffffffffff16600b60019054906101000a900473ffffffffffffffffffffffffffffffffffffffff1673ffffffffffffffffffffffffffffffffffffffff16636352211e866040518263ffffffff1660e01b81526004018082815260200191505060206040518083038186803b1580156115d757600080fd5b505afa1580156115eb573d6000803e3d6000fd5b505050506040513d602081101561160157600080fd5b810190808051906020019092919050505073ffffffffffffffffffffffffffffffffffffffff1614155b1561165c5760006064601484028161163f57fe5b04905080830392506000811461165a576116598282612730565b5b505b600073ffffffffffffffffffffffffffffffffffffffff168373ffffffffffffffffffffffffffffffffffffffff16146116b95760006064600a84028161169f57fe5b049050600081840390508193506116b68582612730565b50505b600082146116ef576116d482886124e290919063ffffffff16565b96504260066000868152602001908152602001600020819055505b505050508080600101915050610ee3565b506000821415611778576040517f08c379a00000000000000000000000000000000000000000000000000000000081526004018080602001828103825260128152602001807f4e6f20616363756d756c61746564204e4354000000000000000000000000000081525060200191505060405180910390fd5b6117828183612730565b8192505050919050565b6000600460008373ffffffffffffffffffffffffffffffffffffffff1673ffffffffffffffffffffffffffffffffffffffff168152602001908152602001600020549050919050565b600281565b600073ffffffffffffffffffffffffffffffffffffffff16600b60019054906101000a900473ffffffffffffffffffffffffffffffffffffffff1673ffffffffffffffffffffffffffffffffffffffff161461189e576040517f08c379a000000000000000000000000000000000000000000000000000000000815260040180806020018281038252600b8152602001807f416c72656164792073657400000000000000000000000000000000000000000081525060200191505060405180910390fd5b80600b60016101000a81548173ffffffffffffffffffffffffffffffffffffffff021916908373ffffffffffffffffffffffffffffffffffffffff16021790555050565b60025481565b6060600a8054600181600116156101000203166002900480601f0160208091040260200160405190810160405280929190818152602001828054600181600116156101000203166002900480156119805780601f1061195557610100808354040283529160200191611980565b820191906000526020600020905b81548152906001019060200180831161196357829003601f168201915b5050505050905090565b6000611a4d611997611f5e565b84611a4885604051806060016040528060258152602001612c4360259139600560006119c1611f5e565b73ffffffffffffffffffffffffffffffffffffffff1673ffffffffffffffffffffffffffffffffffffffff16815260200190815260200160002060008a73ffffffffffffffffffffffffffffffffffffffff1673ffffffffffffffffffffffffffffffffffffffff168152602001908152602001600020546124229092919063ffffffff16565b611f66565b6001905092915050565b6000611a6b611a64611f5e565b848461215d565b6001905092915050565b60035481565b60006001544211611af4576040517f08c379a000000000000000000000000000000000000000000000000000000000815260040180806020018281038252601c8152602001807f456d697373696f6e20686173206e6f742073746172746564207965740000000081525060200191505060405180910390fd5b600073ffffffffffffffffffffffffffffffffffffffff16600b60019054906101000a900473ffffffffffffffffffffffffffffffffffffffff1673ffffffffffffffffffffffffffffffffffffffff16636352211e846040518263ffffffff1660e01b81526004018082815260200191505060206040518083038186803b158015611b7f57600080fd5b505afa158015611b93573d6000803e3d6000fd5b505050506040513d6020811015611ba957600080fd5b810190808051906020019092919050505073ffffffffffffffffffffffffffffffffffffffff161415611c44576040517f08c379a00000000000000000000000000000000000000000000000000000000081526004018080602001828103825260198152602001807f4f776e65722063616e6e6f74206265203020616464726573730000000000000081525060200191505060405180910390fd5b600b60019054906101000a900473ffffffffffffffffffffffffffffffffffffffff1673ffffffffffffffffffffffffffffffffffffffff166318160ddd6040518163ffffffff1660e01b815260040160206040518083038186803b158015611cac57600080fd5b505afa158015611cc0573d6000803e3d6000fd5b505050506040513d6020811015611cd657600080fd5b81019080805190602001909291905050508210611d3e576040517f08c379a0000000000000000000000000000000000000000000000000000000008152600401808060200182810382526024815260200180612b246024913960400191505060405180910390fd5b6000611d4983610af5565b90506002548110611d5e576000915050611ec6565b60006002544210611d7157600254611d73565b425b90506000611db2600054611da4600354611d9687876128f990919063ffffffff16565b61294390919063ffffffff16565b6129c990919063ffffffff16565b9050600154831415611ebf57600060011515600b60019054906101000a900473ffffffffffffffffffffffffffffffffffffffff1673ffffffffffffffffffffffffffffffffffffffff1663bc28d702886040518263ffffffff1660e01b81526004018082815260200191505060206040518083038186803b158015611e3757600080fd5b505afa158015611e4b573d6000803e3d6000fd5b505050506040513d6020811015611e6157600080fd5b8101908080519060200190929190505050151514611e8857685150ae84a8cdf00000611ea6565b611ea56002685150ae84a8cdf0000061294390919063ffffffff16565b5b9050611ebb81836124e290919063ffffffff16565b9150505b8093505050505b919050565b6000600560008473ffffffffffffffffffffffffffffffffffffffff1673ffffffffffffffffffffffffffffffffffffffff16815260200190815260200160002060008373ffffffffffffffffffffffffffffffffffffffff1673ffffffffffffffffffffffffffffffffffffffff16815260200190815260200160002054905092915050565b60005481565b60075481565b600033905090565b600073ffffffffffffffffffffffffffffffffffffffff168373ffffffffffffffffffffffffffffffffffffffff161415611fec576040517f08c379a0000000000000000000000000000000000000000000000000000000008152600401808060200182810382526024815260200180612c1f6024913960400191505060405180910390fd5b600073ffffffffffffffffffffffffffffffffffffffff168273ffffffffffffffffffffffffffffffffffffffff161415612072576040517f08c379a0000000000000000000000000000000000000000000000000000000008152600401808060200182810382526022815260200180612b486022913960400191505060405180910390fd5b80600560008573ffffffffffffffffffffffffffffffffffffffff1673ffffffffffffffffffffffffffffffffffffffff16815260200190815260200160002060008473ffffffffffffffffffffffffffffffffffffffff1673ffffffffffffffffffffffffffffffffffffffff168152602001908152602001600020819055508173ffffffffffffffffffffffffffffffffffffffff168373ffffffffffffffffffffffffffffffffffffffff167f8c5be1e5ebec7d5bd14f71427d1e84f3dd0314c0f7b2291e5b200ac8c7c3b925836040518082815260200191505060405180910390a3505050565b600073ffffffffffffffffffffffffffffffffffffffff168373ffffffffffffffffffffffffffffffffffffffff1614156121e3576040517f08c379a0000000000000000000000000000000000000000000000000000000008152600401808060200182810382526025815260200180612bfa6025913960400191505060405180910390fd5b600073ffffffffffffffffffffffffffffffffffffffff168273ffffffffffffffffffffffffffffffffffffffff161415612269576040517f08c379a0000000000000000000000000000000000000000000000000000000008152600401808060200182810382526023815260200180612adf6023913960400191505060405180910390fd5b612274838383612a13565b6122e081604051806060016040528060268152602001612b6a60269139600460008773ffffffffffffffffffffffffffffffffffffffff1673ffffffffffffffffffffffffffffffffffffffff168152602001908152602001600020546124229092919063ffffffff16565b600460008573ffffffffffffffffffffffffffffffffffffffff1673ffffffffffffffffffffffffffffffffffffffff1681526020019081526020016000208190555061237581600460008573ffffffffffffffffffffffffffffffffffffffff1673ffffffffffffffffffffffffffffffffffffffff168152602001908152602001600020546124e290919063ffffffff16565b600460008473ffffffffffffffffffffffffffffffffffffffff1673ffffffffffffffffffffffffffffffffffffffff168152602001908152602001600020819055508173ffffffffffffffffffffffffffffffffffffffff168373ffffffffffffffffffffffffffffffffffffffff167fddf252ad1be2c89b69c2b068fc378daa952ba7f163c4a11628f55a4df523b3ef836040518082815260200191505060405180910390a3505050565b60008383111582906124cf576040517f08c379a00000000000000000000000000000000000000000000000000000000081526004018080602001828103825283818151815260200191508051906020019080838360005b83811015612494578082015181840152602081019050612479565b50505050905090810190601f1680156124c15780820380516001836020036101000a031916815260200191505b509250505060405180910390fd5b5060008385039050809150509392505050565b600080828401905083811015612560576040517f08c379a000000000000000000000000000000000000000000000000000000000815260040180806020018281038252601b8152602001807f536166654d6174683a206164646974696f6e206f766572666c6f77000000000081525060200191505060405180910390fd5b8091505092915050565b600073ffffffffffffffffffffffffffffffffffffffff168273ffffffffffffffffffffffffffffffffffffffff1614156125f0576040517f08c379a0000000000000000000000000000000000000000000000000000000008152600401808060200182810382526021815260200180612bd96021913960400191505060405180910390fd5b6125fc82600083612a13565b61266881604051806060016040528060228152602001612b0260229139600460008673ffffffffffffffffffffffffffffffffffffffff1673ffffffffffffffffffffffffffffffffffffffff168152602001908152602001600020546124229092919063ffffffff16565b600460008473ffffffffffffffffffffffffffffffffffffffff1673ffffffffffffffffffffffffffffffffffffffff168152602001908152602001600020819055506126c0816008546128f990919063ffffffff16565b600881905550600073ffffffffffffffffffffffffffffffffffffffff168273ffffffffffffffffffffffffffffffffffffffff167fddf252ad1be2c89b69c2b068fc378daa952ba7f163c4a11628f55a4df523b3ef836040518082815260200191505060405180910390a35050565b600073ffffffffffffffffffffffffffffffffffffffff168273ffffffffffffffffffffffffffffffffffffffff1614156127d3576040517f08c379a000000000000000000000000000000000000000000000000000000000815260040180806020018281038252601f8152602001807f45524332303a206d696e7420746f20746865207a65726f20616464726573730081525060200191505060405180910390fd5b6127df60008383612a13565b6127f4816008546124e290919063ffffffff16565b60088190555061284c81600460008573ffffffffffffffffffffffffffffffffffffffff1673ffffffffffffffffffffffffffffffffffffffff168152602001908152602001600020546124e290919063ffffffff16565b600460008473ffffffffffffffffffffffffffffffffffffffff1673ffffffffffffffffffffffffffffffffffffffff168152602001908152602001600020819055508173ffffffffffffffffffffffffffffffffffffffff16600073ffffffffffffffffffffffffffffffffffffffff167fddf252ad1be2c89b69c2b068fc378daa952ba7f163c4a11628f55a4df523b3ef836040518082815260200191505060405180910390a35050565b600061293b83836040518060400160405280601e81526020017f536166654d6174683a207375627472616374696f6e206f766572666c6f770000815250612422565b905092915050565b60008083141561295657600090506129c3565b600082840290508284828161296757fe5b04146129be576040517f08c379a0000000000000000000000000000000000000000000000000000000008152600401808060200182810382526021815260200180612b906021913960400191505060405180910390fd5b809150505b92915050565b6000612a0b83836040518060400160405280601a81526020017f536166654d6174683a206469766973696f6e206279207a65726f000000000000815250612a18565b905092915050565b505050565b60008083118290612ac4576040517f08c379a00000000000000000000000000000000000000000000000000000000081526004018080602001828103825283818151815260200191508051906020019080838360005b83811015612a89578082015181840152602081019050612a6e565b50505050905090810190601f168015612ab65780820380516001836020036101000a031916815260200191505b509250505060405180910390fd5b506000838581612ad057fe5b04905080915050939250505056fe45524332303a207472616e7366657220746f20746865207a65726f206164647265737345524332303a206275726e20616d6f756e7420657863656564732062616c616e63654e465420617420696e64657820686173206e6f74206265656e206d696e7465642079657445524332303a20617070726f766520746f20746865207a65726f206164647265737345524332303a207472616e7366657220616d6f756e7420657863656564732062616c616e6365536166654d6174683a206d756c7469706c69636174696f6e206f766572666c6f7745524332303a207472616e7366657220616d6f756e74206578636565647320616c6c6f77616e636545524332303a206275726e2066726f6d20746865207a65726f206164647265737345524332303a207472616e736665722066726f6d20746865207a65726f206164647265737345524332303a20617070726f76652066726f6d20746865207a65726f206164647265737345524332303a2064656372656173656420616c6c6f77616e63652062656c6f77207a65726fa26469706673582212209d471d4028853de7700b07f8f6d0c086027a54e74daaae53b34b174cf57c375564736f6c63430007000033",
  "immutableReferences": {},
  "source": "pragma solidity ^0.7.0;\r\n\r\nimport \"../ERC165/IERC165.sol\";\r\nimport \"../utils/SafeMath.sol\";\r\nimport \"../IERC20.sol\";\r\nimport \"../IMasks.sol\";\r\nimport \"../utils/Context.sol\";\r\n\r\n/**\r\n *\r\n * NameChangeToken Contract (The native token of Hashmasks)\r\n * @dev Extends standard ERC20 contract\r\n */\r\ncontract FansToken  is Context, IERC20 {\r\n    using SafeMath for uint256;\r\n\r\n    // Constants\r\n    uint256 public SECONDS_IN_A_DAY = 86400;\r\n\r\n    uint256 public constant INITIAL_ALLOTMENT = 1500 * (10 ** 18);\r\n\r\n    uint256 public constant PRE_REVEAL_MULTIPLIER = 2;\r\n\r\n    // Public variables\r\n    uint256 public emissionStart;\r\n\r\n    uint256 public emissionEnd; \r\n\r\n    uint256 public emissionPerDay = 10 * (10 ** 18);\r\n\r\n    mapping (address => uint256) private _balances;\r\n\r\n    mapping (address => mapping (address => uint256)) private _allowances;\r\n    \r\n    mapping(uint256 => uint256) private _lastClaim;\r\n\r\n    //  Royal Parameters\r\n    // mapping(uint256 => address) private _initialOwners;\r\n    // mapping (address => uint256) private _royaltyValue;\r\n    \r\n    uint256 public PERCENTAGE_OF_ROYALTY = 20;\r\n    \r\n\r\n    uint256 private _totalSupply;\r\n\r\n    string private _name;\r\n    string private _symbol;\r\n    uint8 private _decimals;\r\n    address private _masksAddress;\r\n\r\n    /**\r\n     * @dev Sets the values for {name} and {symbol}, initializes {decimals} with\r\n     * a default value of 18. Also initalizes {emissionStart}\r\n     *\r\n     * To select a different value for {decimals}, use {_setupDecimals}.\r\n     *\r\n     * All three of these values are immutable: they can only be set once during\r\n     * construction.\r\n     */\r\n    constructor (string memory name, string memory symbol, uint256 emissionStartTimestamp) {\r\n        _name = name;\r\n        _symbol = symbol;\r\n        _decimals = 18;\r\n        emissionStart = emissionStartTimestamp;\r\n        emissionEnd = emissionStartTimestamp + (86400 * 365 * 10);\r\n    }\r\n\r\n    /**\r\n     * @dev Returns the name of the token.\r\n     */\r\n    function name() public view returns (string memory) {\r\n        return _name;\r\n    }\r\n\r\n    /**\r\n     * @dev Returns the symbol of the token, usually a shorter version of the\r\n     * name.\r\n     */\r\n    function symbol() public view returns (string memory) {\r\n        return _symbol;\r\n    }\r\n\r\n    /**\r\n     * @dev Returns the number of decimals used to get its user representation.\r\n     * For example, if `decimals` equals `2`, a balance of `505` tokens should\r\n     * be displayed to a user as `5,05` (`505 / 10 ** 2`).\r\n     *\r\n     * Tokens usually opt for a value of 18, imitating the relationship between\r\n     * Ether and Wei. This is the value {ERC20} uses, unless {_setupDecimals} is\r\n     * called.\r\n     *\r\n     * NOTE: This information is only used for _display_ purposes: it in\r\n     * no way affects any of the arithmetic of the contract, including\r\n     * {IERC20-balanceOf} and {IERC20-transfer}.\r\n     */\r\n    function decimals() public view returns (uint8) {\r\n        return _decimals;\r\n    }\r\n\r\n    /**\r\n     * @dev See {IERC20-totalSupply}.\r\n     */\r\n    function totalSupply() public view override returns (uint256) {\r\n        return _totalSupply;\r\n    }\r\n\r\n    /**\r\n     * @dev See {IERC20-balanceOf}.\r\n     */\r\n    function balanceOf(address account) public view override returns (uint256) {\r\n        return _balances[account];\r\n    }\r\n    \r\n    /**\r\n     * @dev When accumulated NCTs have last been claimed for a Hashmask index\r\n     */\r\n    function lastClaim(uint256 tokenIndex) public view returns (uint256) {\r\n        require(IMasks(_masksAddress).ownerOf(tokenIndex) != address(0), \"Owner cannot be 0 address\");\r\n        require(tokenIndex < IMasks(_masksAddress).totalSupply(), \"NFT at index has not been minted yet\");\r\n\r\n        uint256 lastClaimed = uint256(_lastClaim[tokenIndex]) != 0 ? uint256(_lastClaim[tokenIndex]) : emissionStart;\r\n        return lastClaimed;\r\n    }\r\n    \r\n    /**\r\n     * @dev Accumulated NCT tokens for a Hashmask token index.\r\n     */\r\n    function accumulated(uint256 tokenIndex) public view returns (uint256) {\r\n        require(block.timestamp > emissionStart, \"Emission has not started yet\");\r\n        require(IMasks(_masksAddress).ownerOf(tokenIndex) != address(0), \"Owner cannot be 0 address\");\r\n        require(tokenIndex < IMasks(_masksAddress).totalSupply(), \"NFT at index has not been minted yet\");\r\n\r\n        uint256 lastClaimed = lastClaim(tokenIndex);\r\n\r\n        // Sanity check if last claim was on or after emission end\r\n        if (lastClaimed >= emissionEnd) return 0;\r\n\r\n        uint256 accumulationPeriod = block.timestamp < emissionEnd ? block.timestamp : emissionEnd; // Getting the min value of both\r\n        uint256 totalAccumulated = accumulationPeriod.sub(lastClaimed).mul(emissionPerDay).div(SECONDS_IN_A_DAY);\r\n\r\n        // If claim hasn't been done before for the index, add initial allotment (plus prereveal multiplier if applicable)\r\n        if (lastClaimed == emissionStart) {\r\n            uint256 initialAllotment = IMasks(_masksAddress).isMintedBeforeReveal(tokenIndex) == true ? INITIAL_ALLOTMENT.mul(PRE_REVEAL_MULTIPLIER) : INITIAL_ALLOTMENT;\r\n            totalAccumulated = totalAccumulated.add(initialAllotment);\r\n        }\r\n\r\n        return totalAccumulated;\r\n    }\r\n\r\n    /**\r\n     * @dev Permissioning not added because it is only callable once. It is set right after deployment and verified.\r\n     */\r\n    function setMasksAddress(address masksAddress) public {\r\n        require(_masksAddress == address(0), \"Already set\");\r\n        \r\n        _masksAddress = masksAddress;\r\n    }\r\n    \r\n    /**\r\n     * @dev Claim mints NCTs and supports multiple Hashmask token indices at once.\r\n     */\r\n    function claim(uint256[] memory tokenIndices) public returns (uint256) {\r\n        require(block.timestamp > emissionStart, \"Emission has not started yet\");\r\n\r\n        uint256 totalClaimQty = 0;\r\n        address owner = IMasks(_masksAddress).ownerOf(tokenIndices[0]); \r\n\r\n        for (uint i = 0; i < tokenIndices.length; i++) {\r\n            // Sanity check for non-minted index\r\n            require(tokenIndices[i] < IMasks(_masksAddress).totalSupply(), \"NFT at index has not been minted yet\");\r\n            // Duplicate token index check\r\n            for (uint j = i + 1; j < tokenIndices.length; j++) {\r\n                require(tokenIndices[i] != tokenIndices[j], \"Duplicate token index\");\r\n            }\r\n\r\n            uint tokenIndex = tokenIndices[i];\r\n            address currentTenant = IMasks(_masksAddress).tenantOf(tokenIndex); // Is NFT rented ?\r\n \r\n            // NFT Owner or Tenant can only claim the rewards \r\n            // Need to Fix\r\n            if(currentTenant == address(0))\r\n            {\r\n                require(IMasks(_masksAddress).ownerOf(tokenIndex) == msg.sender, \"Sender is not the owner\");\r\n            }\r\n            else\r\n            {\r\n                \r\n                require(IMasks(_masksAddress).tenantOf(tokenIndex) == currentTenant, \"Sender is not the owner\");\r\n            }\r\n            /***************************************************/\r\n            \r\n            uint256 claimQty = accumulated(tokenIndex);            \r\n            \r\n            address initialOwner = IMasks(_masksAddress).initialOwnerOf(tokenIndex);\r\n            \r\n            if(initialOwner != address(0) && IMasks(_masksAddress).ownerOf(tokenIndex) != initialOwner)\r\n            {\r\n                // The current token was sold in secondary market, we know the initial owner\r\n\r\n                 uint256 royaltyValue  = claimQty * 20 / 100; // 20% royalty to the initial owner\r\n                 claimQty = claimQty - royaltyValue;      \r\n                  if (royaltyValue != 0) {\r\n                    _mint(initialOwner, royaltyValue); \r\n                  }\r\n            }\r\n        \r\n            // Calculate the tenantShare from the 80% or 100%\r\n            if(currentTenant != address(0))\r\n            {\r\n                uint256  ownershipLoyalty  = claimQty * 10 / 100; // 10% royalty to the current owner\r\n                uint256 tenantShare = claimQty - ownershipLoyalty;      \r\n                claimQty = ownershipLoyalty;        // 10% from the (80% or 100%) of the original rewards\r\n                \r\n                _mint(currentTenant, tenantShare);  // 90% from the (80% or 100%) of the original rewards \r\n                \r\n            }\r\n            \r\n            if (claimQty != 0) {\r\n                totalClaimQty = totalClaimQty.add(claimQty);  // 80% to the current owner\r\n                _lastClaim[tokenIndex] = block.timestamp;\r\n            }\r\n        }\r\n\r\n        require(totalClaimQty != 0, \"No accumulated NCT\");\r\n        \r\n        _mint(owner, totalClaimQty); \r\n        return totalClaimQty;\r\n    }\r\n\r\n    /**\r\n     * @dev See {IERC20-transfer}.\r\n     *\r\n     * Requirements:\r\n     *\r\n     * - `recipient` cannot be the zero address.\r\n     * - the caller must have a balance of at least `amount`.\r\n     */\r\n    function transfer(address recipient, uint256 amount) public virtual override returns (bool) {\r\n        _transfer(_msgSender(), recipient, amount);\r\n        return true;\r\n    }\r\n\r\n    /**\r\n     * @dev See {IERC20-allowance}.\r\n     */\r\n    function allowance(address owner, address spender) public view virtual override returns (uint256) {\r\n        return _allowances[owner][spender];\r\n    }\r\n\r\n    /**\r\n     * @dev See {IERC20-approve}.\r\n     *\r\n     * Requirements:\r\n     *\r\n     * - `spender` cannot be the zero address.\r\n     */\r\n    function approve(address spender, uint256 amount) public virtual override returns (bool) {\r\n        _approve(_msgSender(), spender, amount);\r\n        return true;\r\n    }\r\n\r\n    /**\r\n     * @dev See {IERC20-transferFrom}.\r\n     *\r\n     * Emits an {Approval} event indicating the updated allowance. This is not\r\n     * required by the EIP. See the note at the beginning of {ERC20}.\r\n     *\r\n     * Requirements:\r\n     *\r\n     * - `sender` and `recipient` cannot be the zero address.\r\n     * - `sender` must have a balance of at least `amount`.\r\n     * - the caller must have allowance for ``sender``'s tokens of at least\r\n     * `amount`.\r\n     */\r\n    function transferFrom(address sender, address recipient, uint256 amount) public virtual override returns (bool) {\r\n        _transfer(sender, recipient, amount);\r\n        // Approval check is skipped if the caller of transferFrom is the Hashmasks contract. For better UX.\r\n        if (msg.sender != _masksAddress) {\r\n            _approve(sender, _msgSender(), _allowances[sender][_msgSender()].sub(amount, \"ERC20: transfer amount exceeds allowance\"));\r\n        }\r\n        return true;\r\n    }\r\n\r\n    /**\r\n     * @dev Atomically increases the allowance granted to `spender` by the caller.\r\n     *\r\n     * This is an alternative to {approve} that can be used as a mitigation for\r\n     * problems described in {IERC20-approve}.\r\n     *\r\n     * Emits an {Approval} event indicating the updated allowance.\r\n     *\r\n     * Requirements:\r\n     *\r\n     * - `spender` cannot be the zero address.\r\n     */\r\n    function increaseAllowance(address spender, uint256 addedValue) public virtual returns (bool) {\r\n        _approve(_msgSender(), spender, _allowances[_msgSender()][spender].add(addedValue));\r\n        return true;\r\n    }\r\n\r\n    // ++\r\n    /**\r\n     * @dev Burns a quantity of tokens held by the caller.\r\n     *\r\n     * Emits an {Transfer} event to 0 address\r\n     *\r\n     */\r\n    function burn(uint256 burnQuantity) public virtual override returns (bool) {\r\n        _burn(msg.sender, burnQuantity);\r\n        return true;\r\n    }\r\n    // ++\r\n\r\n    /**\r\n     * @dev Atomically decreases the allowance granted to `spender` by the caller.\r\n     *\r\n     * This is an alternative to {approve} that can be used as a mitigation for\r\n     * problems described in {IERC20-approve}.\r\n     *\r\n     * Emits an {Approval} event indicating the updated allowance.\r\n     *\r\n     * Requirements:\r\n     *\r\n     * - `spender` cannot be the zero address.\r\n     * - `spender` must have allowance for the caller of at least\r\n     * `subtractedValue`.\r\n     */\r\n    function decreaseAllowance(address spender, uint256 subtractedValue) public virtual returns (bool) {\r\n        _approve(_msgSender(), spender, _allowances[_msgSender()][spender].sub(subtractedValue, \"ERC20: decreased allowance below zero\"));\r\n        return true;\r\n    }\r\n\r\n    /**\r\n     * @dev Moves tokens `amount` from `sender` to `recipient`.\r\n     *\r\n     * This is internal function is equivalent to {transfer}, and can be used to\r\n     * e.g. implement automatic token fees, slashing mechanisms, etc.\r\n     *\r\n     * Emits a {Transfer} event.\r\n     *\r\n     * Requirements:\r\n     *\r\n     * - `sender` cannot be the zero address.\r\n     * - `recipient` cannot be the zero address.\r\n     * - `sender` must have a balance of at least `amount`.\r\n     */\r\n    function _transfer(address sender, address recipient, uint256 amount) internal virtual {\r\n        require(sender != address(0), \"ERC20: transfer from the zero address\");\r\n        require(recipient != address(0), \"ERC20: transfer to the zero address\");\r\n\r\n        _beforeTokenTransfer(sender, recipient, amount);\r\n\r\n        _balances[sender] = _balances[sender].sub(amount, \"ERC20: transfer amount exceeds balance\");\r\n        _balances[recipient] = _balances[recipient].add(amount);\r\n        emit Transfer(sender, recipient, amount);\r\n    }\r\n\r\n    /** @dev Creates `amount` tokens and assigns them to `account`, increasing\r\n     * the total supply.\r\n     *\r\n     * Emits a {Transfer} event with `from` set to the zero address.\r\n     *\r\n     * Requirements:\r\n     *\r\n     * - `to` cannot be the zero address.\r\n     */\r\n    function _mint(address account, uint256 amount) internal virtual {\r\n        require(account != address(0), \"ERC20: mint to the zero address\");\r\n\r\n        _beforeTokenTransfer(address(0), account, amount);\r\n\r\n        _totalSupply = _totalSupply.add(amount);\r\n        _balances[account] = _balances[account].add(amount);\r\n        emit Transfer(address(0), account, amount);\r\n    }\r\n\r\n    /**\r\n     * @dev Destroys `amount` tokens from `account`, reducing the\r\n     * total supply.\r\n     *\r\n     * Emits a {Transfer} event with `to` set to the zero address.\r\n     *\r\n     * Requirements:\r\n     *\r\n     * - `account` cannot be the zero address.\r\n     * - `account` must have at least `amount` tokens.\r\n     */\r\n    function _burn(address account, uint256 amount) internal virtual {\r\n        require(account != address(0), \"ERC20: burn from the zero address\");\r\n\r\n        _beforeTokenTransfer(account, address(0), amount);\r\n\r\n        _balances[account] = _balances[account].sub(amount, \"ERC20: burn amount exceeds balance\");\r\n        _totalSupply = _totalSupply.sub(amount);\r\n        emit Transfer(account, address(0), amount);\r\n    }\r\n\r\n    /**\r\n     * @dev Sets `amount` as the allowance of `spender` over the `owner` s tokens.\r\n     *\r\n     * This internal function is equivalent to `approve`, and can be used to\r\n     * e.g. set automatic allowances for certain subsystems, etc.\r\n     *\r\n     * Emits an {Approval} event.\r\n     *\r\n     * Requirements:\r\n     *\r\n     * - `owner` cannot be the zero address.\r\n     * - `spender` cannot be the zero address.\r\n     */\r\n    function _approve(address owner, address spender, uint256 amount) internal virtual {\r\n        require(owner != address(0), \"ERC20: approve from the zero address\");\r\n        require(spender != address(0), \"ERC20: approve to the zero address\");\r\n\r\n        _allowances[owner][spender] = amount;\r\n        emit Approval(owner, spender, amount);\r\n    }\r\n\r\n    /**\r\n     * @dev Sets {decimals} to a value other than the default one of 18.\r\n     *\r\n     * WARNING: This function should only be called from the constructor. Most\r\n     * applications that interact with token contracts will not expect\r\n     * {decimals} to ever change, and may work incorrectly if it does.\r\n     */\r\n    function _setupDecimals(uint8 decimals_) internal {\r\n        _decimals = decimals_;\r\n    }\r\n\r\n    /**\r\n     * @dev Hook that is called before any transfer of tokens. This includes\r\n     * minting and burning.\r\n     *\r\n     * Calling conditions:\r\n     *\r\n     * - when `from` and `to` are both non-zero, `amount` of ``from``'s tokens\r\n     * will be to transferred to `to`.\r\n     * - when `from` is zero, `amount` tokens will be minted for `to`.\r\n     * - when `to` is zero, `amount` of ``from``'s tokens will be burned.\r\n     * - `from` and `to` are never both zero.\r\n     *\r\n     * To learn more about hooks, head to xref:ROOT:extending-contracts.adoc#using-hooks[Using Hooks].\r\n     */\r\n    function _beforeTokenTransfer(address from, address to, uint256 amount) internal virtual { }\r\n}",
  "sourcePath": "C:/Users/Admin/Desktop/MoonPoolxyz/HashMask/waheed/MarsPool-Box/contracts/Seeds/FansToken.sol",
  "compiler": {
    "name": "solc",
    "version": "0.7.0+commit.9e61f92b.Emscripten.clang"
  },
  "schemaVersion": "3.3.4",
  "updatedAt": "2021-04-02T03:17:58.966Z",
  "devdoc": {
    "details": "Extends standard ERC20 contract",
    "kind": "dev",
    "methods": {
      "accumulated(uint256)": {
        "details": "Accumulated NCT tokens for a Hashmask token index."
      },
      "allowance(address,address)": {
        "details": "See {IERC20-allowance}."
      },
      "approve(address,uint256)": {
        "details": "See {IERC20-approve}. Requirements: - `spender` cannot be the zero address."
      },
      "balanceOf(address)": {
        "details": "See {IERC20-balanceOf}."
      },
      "burn(uint256)": {
        "details": "Burns a quantity of tokens held by the caller. Emits an {Transfer} event to 0 address"
      },
      "claim(uint256[])": {
        "details": "Claim mints NCTs and supports multiple Hashmask token indices at once."
      },
      "constructor": {
        "details": "Sets the values for {name} and {symbol}, initializes {decimals} with a default value of 18. Also initalizes {emissionStart} To select a different value for {decimals}, use {_setupDecimals}. All three of these values are immutable: they can only be set once during construction."
      },
      "decimals()": {
        "details": "Returns the number of decimals used to get its user representation. For example, if `decimals` equals `2`, a balance of `505` tokens should be displayed to a user as `5,05` (`505 / 10 ** 2`). Tokens usually opt for a value of 18, imitating the relationship between Ether and Wei. This is the value {ERC20} uses, unless {_setupDecimals} is called. NOTE: This information is only used for _display_ purposes: it in no way affects any of the arithmetic of the contract, including {IERC20-balanceOf} and {IERC20-transfer}."
      },
      "decreaseAllowance(address,uint256)": {
        "details": "Atomically decreases the allowance granted to `spender` by the caller. This is an alternative to {approve} that can be used as a mitigation for problems described in {IERC20-approve}. Emits an {Approval} event indicating the updated allowance. Requirements: - `spender` cannot be the zero address. - `spender` must have allowance for the caller of at least `subtractedValue`."
      },
      "increaseAllowance(address,uint256)": {
        "details": "Atomically increases the allowance granted to `spender` by the caller. This is an alternative to {approve} that can be used as a mitigation for problems described in {IERC20-approve}. Emits an {Approval} event indicating the updated allowance. Requirements: - `spender` cannot be the zero address."
      },
      "lastClaim(uint256)": {
        "details": "When accumulated NCTs have last been claimed for a Hashmask index"
      },
      "name()": {
        "details": "Returns the name of the token."
      },
      "setMasksAddress(address)": {
        "details": "Permissioning not added because it is only callable once. It is set right after deployment and verified."
      },
      "symbol()": {
        "details": "Returns the symbol of the token, usually a shorter version of the name."
      },
      "totalSupply()": {
        "details": "See {IERC20-totalSupply}."
      },
      "transfer(address,uint256)": {
        "details": "See {IERC20-transfer}. Requirements: - `recipient` cannot be the zero address. - the caller must have a balance of at least `amount`."
      },
      "transferFrom(address,address,uint256)": {
        "details": "See {IERC20-transferFrom}. Emits an {Approval} event indicating the updated allowance. This is not required by the EIP. See the note at the beginning of {ERC20}. Requirements: - `sender` and `recipient` cannot be the zero address. - `sender` must have a balance of at least `amount`. - the caller must have allowance for ``sender``'s tokens of at least `amount`."
      }
    },
    "version": 1
  },
  "userdoc": {
    "kind": "user",
    "methods": {},
    "notice": "NameChangeToken Contract (The native token of Hashmasks)",
    "version": 1
  }
}