{
  "contractName": "HelloWorld",
  "abi": [
    {
      "inputs": [
        {
          "internalType": "string",
          "name": "name",
          "type": "string"
        },
        {
          "internalType": "string",
          "name": "symbol",
          "type": "string"
        },
        {
          "internalType": "address",
          "name": "nctAddress",
          "type": "address"
        }
      ],
      "stateMutability": "nonpayable",
      "type": "constructor"
    },
    {
      "anonymous": false,
      "inputs": [
        {
          "indexed": true,
          "internalType": "uint256",
          "name": "maskIndex",
          "type": "uint256"
        }
      ],
      "name": "AgreementExist",
      "type": "event"
    },
    {
      "anonymous": false,
      "inputs": [
        {
          "indexed": true,
          "internalType": "uint256",
          "name": "maskIndex",
          "type": "uint256"
        },
        {
          "indexed": false,
          "internalType": "address",
          "name": "tenant",
          "type": "address"
        }
      ],
      "name": "AgreementReady",
      "type": "event"
    },
    {
      "anonymous": false,
      "inputs": [
        {
          "indexed": true,
          "internalType": "address",
          "name": "owner",
          "type": "address"
        },
        {
          "indexed": true,
          "internalType": "address",
          "name": "approved",
          "type": "address"
        },
        {
          "indexed": true,
          "internalType": "uint256",
          "name": "tokenId",
          "type": "uint256"
        }
      ],
      "name": "Approval",
      "type": "event"
    },
    {
      "anonymous": false,
      "inputs": [
        {
          "indexed": true,
          "internalType": "address",
          "name": "owner",
          "type": "address"
        },
        {
          "indexed": true,
          "internalType": "address",
          "name": "operator",
          "type": "address"
        },
        {
          "indexed": false,
          "internalType": "bool",
          "name": "approved",
          "type": "bool"
        }
      ],
      "name": "ApprovalForAll",
      "type": "event"
    },
    {
      "anonymous": false,
      "inputs": [
        {
          "indexed": true,
          "internalType": "uint256",
          "name": "maskIndex",
          "type": "uint256"
        },
        {
          "indexed": false,
          "internalType": "string",
          "name": "newName",
          "type": "string"
        }
      ],
      "name": "NameChange",
      "type": "event"
    },
    {
      "anonymous": false,
      "inputs": [
        {
          "indexed": true,
          "internalType": "address",
          "name": "previousOwner",
          "type": "address"
        },
        {
          "indexed": true,
          "internalType": "address",
          "name": "newOwner",
          "type": "address"
        }
      ],
      "name": "OwnershipTransferred",
      "type": "event"
    },
    {
      "anonymous": false,
      "inputs": [
        {
          "indexed": true,
          "internalType": "uint256",
          "name": "maskIndex",
          "type": "uint256"
        },
        {
          "indexed": false,
          "internalType": "address",
          "name": "tenant",
          "type": "address"
        }
      ],
      "name": "RentalApproved",
      "type": "event"
    },
    {
      "anonymous": false,
      "inputs": [
        {
          "indexed": true,
          "internalType": "address",
          "name": "from",
          "type": "address"
        },
        {
          "indexed": true,
          "internalType": "address",
          "name": "to",
          "type": "address"
        },
        {
          "indexed": true,
          "internalType": "uint256",
          "name": "tokenId",
          "type": "uint256"
        }
      ],
      "name": "Transfer",
      "type": "event"
    },
    {
      "inputs": [],
      "name": "MAX_NFT_SUPPLY",
      "outputs": [
        {
          "internalType": "uint256",
          "name": "",
          "type": "uint256"
        }
      ],
      "stateMutability": "view",
      "type": "function"
    },
    {
      "inputs": [],
      "name": "MAX_PUBLIC_NFT",
      "outputs": [
        {
          "internalType": "uint256",
          "name": "",
          "type": "uint256"
        }
      ],
      "stateMutability": "view",
      "type": "function"
    },
    {
      "inputs": [],
      "name": "MarsPoolLand_PROVENANCE",
      "outputs": [
        {
          "internalType": "string",
          "name": "",
          "type": "string"
        }
      ],
      "stateMutability": "view",
      "type": "function"
    },
    {
      "inputs": [],
      "name": "NAME_CHANGE_PRICE",
      "outputs": [
        {
          "internalType": "uint256",
          "name": "",
          "type": "uint256"
        }
      ],
      "stateMutability": "view",
      "type": "function"
    },
    {
      "inputs": [],
      "name": "REVEAL_TIMESTAMP",
      "outputs": [
        {
          "internalType": "uint256",
          "name": "",
          "type": "uint256"
        }
      ],
      "stateMutability": "view",
      "type": "function"
    },
    {
      "inputs": [],
      "name": "SALE_START_TIMESTAMP",
      "outputs": [
        {
          "internalType": "uint256",
          "name": "",
          "type": "uint256"
        }
      ],
      "stateMutability": "view",
      "type": "function"
    },
    {
      "inputs": [],
      "name": "owner",
      "outputs": [
        {
          "internalType": "address",
          "name": "",
          "type": "address"
        }
      ],
      "stateMutability": "view",
      "type": "function"
    },
    {
      "inputs": [],
      "name": "renounceOwnership",
      "outputs": [],
      "stateMutability": "nonpayable",
      "type": "function"
    },
    {
      "inputs": [],
      "name": "startingIndex",
      "outputs": [
        {
          "internalType": "uint256",
          "name": "",
          "type": "uint256"
        }
      ],
      "stateMutability": "view",
      "type": "function"
    },
    {
      "inputs": [],
      "name": "startingIndexBlock",
      "outputs": [
        {
          "internalType": "uint256",
          "name": "",
          "type": "uint256"
        }
      ],
      "stateMutability": "view",
      "type": "function"
    },
    {
      "inputs": [
        {
          "internalType": "bytes4",
          "name": "interfaceId",
          "type": "bytes4"
        }
      ],
      "name": "supportsInterface",
      "outputs": [
        {
          "internalType": "bool",
          "name": "",
          "type": "bool"
        }
      ],
      "stateMutability": "view",
      "type": "function"
    },
    {
      "inputs": [
        {
          "internalType": "address",
          "name": "newOwner",
          "type": "address"
        }
      ],
      "name": "transferOwnership",
      "outputs": [],
      "stateMutability": "nonpayable",
      "type": "function"
    },
    {
      "inputs": [
        {
          "internalType": "address",
          "name": "owner",
          "type": "address"
        }
      ],
      "name": "balanceOf",
      "outputs": [
        {
          "internalType": "uint256",
          "name": "",
          "type": "uint256"
        }
      ],
      "stateMutability": "view",
      "type": "function"
    },
    {
      "inputs": [
        {
          "internalType": "uint256",
          "name": "tokenId",
          "type": "uint256"
        }
      ],
      "name": "ownerOf",
      "outputs": [
        {
          "internalType": "address",
          "name": "",
          "type": "address"
        }
      ],
      "stateMutability": "view",
      "type": "function"
    },
    {
      "inputs": [
        {
          "internalType": "uint256",
          "name": "tokenId",
          "type": "uint256"
        }
      ],
      "name": "initialOwnerOf",
      "outputs": [
        {
          "internalType": "address",
          "name": "initialOwner",
          "type": "address"
        }
      ],
      "stateMutability": "view",
      "type": "function"
    },
    {
      "inputs": [],
      "name": "name",
      "outputs": [
        {
          "internalType": "string",
          "name": "",
          "type": "string"
        }
      ],
      "stateMutability": "view",
      "type": "function"
    },
    {
      "inputs": [],
      "name": "symbol",
      "outputs": [
        {
          "internalType": "string",
          "name": "",
          "type": "string"
        }
      ],
      "stateMutability": "view",
      "type": "function"
    },
    {
      "inputs": [
        {
          "internalType": "address",
          "name": "owner",
          "type": "address"
        },
        {
          "internalType": "uint256",
          "name": "index",
          "type": "uint256"
        }
      ],
      "name": "tokenOfOwnerByIndex",
      "outputs": [
        {
          "internalType": "uint256",
          "name": "",
          "type": "uint256"
        }
      ],
      "stateMutability": "view",
      "type": "function"
    },
    {
      "inputs": [],
      "name": "totalSupply",
      "outputs": [
        {
          "internalType": "uint256",
          "name": "",
          "type": "uint256"
        }
      ],
      "stateMutability": "view",
      "type": "function"
    },
    {
      "inputs": [
        {
          "internalType": "uint256",
          "name": "index",
          "type": "uint256"
        }
      ],
      "name": "tokenByIndex",
      "outputs": [
        {
          "internalType": "uint256",
          "name": "",
          "type": "uint256"
        }
      ],
      "stateMutability": "view",
      "type": "function"
    },
    {
      "inputs": [
        {
          "internalType": "uint256",
          "name": "index",
          "type": "uint256"
        }
      ],
      "name": "tokenNameByIndex",
      "outputs": [
        {
          "internalType": "string",
          "name": "",
          "type": "string"
        }
      ],
      "stateMutability": "view",
      "type": "function"
    },
    {
      "inputs": [
        {
          "internalType": "string",
          "name": "nameString",
          "type": "string"
        }
      ],
      "name": "isNameReserved",
      "outputs": [
        {
          "internalType": "bool",
          "name": "",
          "type": "bool"
        }
      ],
      "stateMutability": "view",
      "type": "function"
    },
    {
      "inputs": [
        {
          "internalType": "uint256",
          "name": "index",
          "type": "uint256"
        }
      ],
      "name": "isMintedBeforeReveal",
      "outputs": [
        {
          "internalType": "bool",
          "name": "",
          "type": "bool"
        }
      ],
      "stateMutability": "view",
      "type": "function"
    },
    {
      "inputs": [],
      "name": "getNFTPrice",
      "outputs": [
        {
          "internalType": "uint256",
          "name": "",
          "type": "uint256"
        }
      ],
      "stateMutability": "view",
      "type": "function"
    },
    {
      "inputs": [
        {
          "internalType": "uint256",
          "name": "numberOfNfts",
          "type": "uint256"
        }
      ],
      "name": "mintNFT",
      "outputs": [],
      "stateMutability": "payable",
      "type": "function"
    },
    {
      "inputs": [
        {
          "internalType": "uint256",
          "name": "tokenId",
          "type": "uint256"
        }
      ],
      "name": "rentDeposit",
      "outputs": [],
      "stateMutability": "payable",
      "type": "function"
    },
    {
      "inputs": [
        {
          "internalType": "uint256",
          "name": "tokenId",
          "type": "uint256"
        }
      ],
      "name": "withdrawDeposit",
      "outputs": [],
      "stateMutability": "nonpayable",
      "type": "function"
    },
    {
      "inputs": [
        {
          "internalType": "uint256",
          "name": "index",
          "type": "uint256"
        }
      ],
      "name": "depositByIndex",
      "outputs": [
        {
          "internalType": "address",
          "name": "",
          "type": "address"
        },
        {
          "internalType": "uint256",
          "name": "",
          "type": "uint256"
        }
      ],
      "stateMutability": "view",
      "type": "function"
    },
    {
      "inputs": [
        {
          "internalType": "address",
          "name": "tenantAddress",
          "type": "address"
        }
      ],
      "name": "getAgreementByAddress",
      "outputs": [
        {
          "internalType": "uint256",
          "name": "",
          "type": "uint256"
        }
      ],
      "stateMutability": "view",
      "type": "function"
    },
    {
      "inputs": [
        {
          "internalType": "uint256",
          "name": "index",
          "type": "uint256"
        }
      ],
      "name": "getAgreement",
      "outputs": [
        {
          "internalType": "address",
          "name": "",
          "type": "address"
        },
        {
          "internalType": "uint256",
          "name": "",
          "type": "uint256"
        },
        {
          "internalType": "uint256",
          "name": "",
          "type": "uint256"
        },
        {
          "internalType": "uint256",
          "name": "",
          "type": "uint256"
        }
      ],
      "stateMutability": "view",
      "type": "function"
    },
    {
      "inputs": [
        {
          "internalType": "uint256",
          "name": "index",
          "type": "uint256"
        }
      ],
      "name": "tenantOf",
      "outputs": [
        {
          "internalType": "address",
          "name": "tenantAddress",
          "type": "address"
        }
      ],
      "stateMutability": "view",
      "type": "function"
    },
    {
      "inputs": [
        {
          "internalType": "uint256",
          "name": "tokenId",
          "type": "uint256"
        }
      ],
      "name": "ApproveAgreement",
      "outputs": [],
      "stateMutability": "nonpayable",
      "type": "function"
    },
    {
      "inputs": [
        {
          "internalType": "uint256",
          "name": "tokenId",
          "type": "uint256"
        },
        {
          "internalType": "uint256",
          "name": "start_time",
          "type": "uint256"
        },
        {
          "internalType": "uint256",
          "name": "end_time",
          "type": "uint256"
        },
        {
          "internalType": "address",
          "name": "agreementTenant",
          "type": "address"
        }
      ],
      "name": "rentalAgreement",
      "outputs": [],
      "stateMutability": "nonpayable",
      "type": "function"
    },
    {
      "inputs": [],
      "name": "finalizeStartingIndex",
      "outputs": [],
      "stateMutability": "nonpayable",
      "type": "function"
    },
    {
      "inputs": [
        {
          "internalType": "uint256",
          "name": "tokenId",
          "type": "uint256"
        },
        {
          "internalType": "string",
          "name": "newName",
          "type": "string"
        }
      ],
      "name": "changeName",
      "outputs": [],
      "stateMutability": "nonpayable",
      "type": "function"
    },
    {
      "inputs": [],
      "name": "withdraw",
      "outputs": [],
      "stateMutability": "nonpayable",
      "type": "function"
    },
    {
      "inputs": [
        {
          "internalType": "address",
          "name": "to",
          "type": "address"
        },
        {
          "internalType": "uint256",
          "name": "tokenId",
          "type": "uint256"
        }
      ],
      "name": "approve",
      "outputs": [],
      "stateMutability": "nonpayable",
      "type": "function"
    },
    {
      "inputs": [],
      "name": "getBlockTime",
      "outputs": [
        {
          "internalType": "uint256",
          "name": "",
          "type": "uint256"
        }
      ],
      "stateMutability": "view",
      "type": "function"
    },
    {
      "inputs": [
        {
          "internalType": "uint256",
          "name": "tokenId",
          "type": "uint256"
        }
      ],
      "name": "getApproved",
      "outputs": [
        {
          "internalType": "address",
          "name": "",
          "type": "address"
        }
      ],
      "stateMutability": "view",
      "type": "function"
    },
    {
      "inputs": [
        {
          "internalType": "address",
          "name": "operator",
          "type": "address"
        },
        {
          "internalType": "bool",
          "name": "approved",
          "type": "bool"
        }
      ],
      "name": "setApprovalForAll",
      "outputs": [],
      "stateMutability": "nonpayable",
      "type": "function"
    },
    {
      "inputs": [
        {
          "internalType": "address",
          "name": "owner",
          "type": "address"
        },
        {
          "internalType": "address",
          "name": "operator",
          "type": "address"
        }
      ],
      "name": "isApprovedForAll",
      "outputs": [
        {
          "internalType": "bool",
          "name": "",
          "type": "bool"
        }
      ],
      "stateMutability": "view",
      "type": "function"
    },
    {
      "inputs": [
        {
          "internalType": "address",
          "name": "from",
          "type": "address"
        },
        {
          "internalType": "address",
          "name": "to",
          "type": "address"
        },
        {
          "internalType": "uint256",
          "name": "tokenId",
          "type": "uint256"
        }
      ],
      "name": "transferFrom",
      "outputs": [],
      "stateMutability": "nonpayable",
      "type": "function"
    },
    {
      "inputs": [
        {
          "internalType": "address",
          "name": "from",
          "type": "address"
        },
        {
          "internalType": "address",
          "name": "to",
          "type": "address"
        },
        {
          "internalType": "uint256",
          "name": "tokenId",
          "type": "uint256"
        }
      ],
      "name": "safeTransferFrom",
      "outputs": [],
      "stateMutability": "nonpayable",
      "type": "function"
    },
    {
      "inputs": [
        {
          "internalType": "address",
          "name": "from",
          "type": "address"
        },
        {
          "internalType": "address",
          "name": "to",
          "type": "address"
        },
        {
          "internalType": "uint256",
          "name": "tokenId",
          "type": "uint256"
        },
        {
          "internalType": "bytes",
          "name": "_data",
          "type": "bytes"
        }
      ],
      "name": "safeTransferFrom",
      "outputs": [],
      "stateMutability": "nonpayable",
      "type": "function"
    },
    {
      "inputs": [
        {
          "internalType": "string",
          "name": "str",
          "type": "string"
        }
      ],
      "name": "toLower",
      "outputs": [
        {
          "internalType": "string",
          "name": "",
          "type": "string"
        }
      ],
      "stateMutability": "pure",
      "type": "function"
    },
    {
      "inputs": [
        {
          "internalType": "string",
          "name": "str",
          "type": "string"
        }
      ],
      "name": "validateName",
      "outputs": [
        {
          "internalType": "bool",
          "name": "",
          "type": "bool"
        }
      ],
      "stateMutability": "pure",
      "type": "function"
    }
  ],
  "bytecode": "0x608060405260006004553480156200001657600080fd5b506040516200645d3803806200645d833981810160405260608110156200003c57600080fd5b81019080805160405193929190846401000000008211156200005d57600080fd5b838201915060208201858111156200007457600080fd5b82518660018202830111640100000000821117156200009257600080fd5b8083526020830192505050908051906020019080838360005b83811015620000c8578082015181840152602081019050620000ab565b50505050905090810190601f168015620000f65780820380516001836020036101000a031916815260200191505b50604052602001805160405193929190846401000000008211156200011a57600080fd5b838201915060208201858111156200013157600080fd5b82518660018202830111640100000000821117156200014f57600080fd5b8083526020830192505050908051906020019080838360005b838110156200018557808201518184015260208101905062000168565b50505050905090810190601f168015620001b35780820380516001836020036101000a031916815260200191505b50604052602001805190602001909291905050506000620001d96200035360201b60201c565b9050806000806101000a81548173ffffffffffffffffffffffffffffffffffffffff021916908373ffffffffffffffffffffffffffffffffffffffff1602179055508073ffffffffffffffffffffffffffffffffffffffff16600073ffffffffffffffffffffffffffffffffffffffff167f8be0079c531659141344cd1fd0a4f28419497f9722a3daafe3b4186f6b6457e060405160405180910390a3506200028f6301ffc9a760e01b6200035b60201b60201c565b8260199080519060200190620002a792919062000464565b5081601a9080519060200190620002c092919062000464565b5080601b60006101000a81548173ffffffffffffffffffffffffffffffffffffffff021916908373ffffffffffffffffffffffffffffffffffffffff1602179055506200031a6380ac58cd60e01b6200035b60201b60201c565b62000332639325454260e01b6200035b60201b60201c565b6200034a63780e9d6360e01b6200035b60201b60201c565b5050506200050a565b600033905090565b63ffffffff60e01b817bffffffffffffffffffffffffffffffffffffffffffffffffffffffff19161415620003f8576040517f08c379a000000000000000000000000000000000000000000000000000000000815260040180806020018281038252601c8152602001807f4552433136353a20696e76616c696420696e746572666163652069640000000081525060200191505060405180910390fd5b6001806000837bffffffffffffffffffffffffffffffffffffffffffffffffffffffff19167bffffffffffffffffffffffffffffffffffffffffffffffffffffffff1916815260200190815260200160002060006101000a81548160ff02191690831515021790555050565b828054600181600116156101000203166002900490600052602060002090601f016020900481019282601f10620004a757805160ff1916838001178555620004d8565b82800160010185558215620004d8579182015b82811115620004d7578251825591602001919060010190620004ba565b5b509050620004e79190620004eb565b5090565b5b8082111562000506576000816000905550600101620004ec565b5090565b615f43806200051a6000396000f3fe60806040526004361061027d5760003560e01c806378155ede1161014f578063b04e0387116100c1578063e36d64981161007a578063e36d6498146112c4578063e50ad4c7146112ef578063e985e9c51461131d578063f2560207146113a4578063f2fde38b14611409578063fb107a4f1461145a5761027d565b8063b04e038714610fa9578063b5077f4414611039578063b88d4fde14611064578063bc28d70214611176578063c39cbef1146111c7578063cb774d47146112995761027d565b80639416b423116101135780639416b42314610c03578063946807fd14610d4457806395d89b4114610d6f5780639ffdb65a14610dff578063a22cb46514610edd578063ab7c6e3414610f3a5761027d565b806378155ede14610ad957806387ceff0914610b045780638da5cb5b14610b2f57806391a5caaf14610b705780639264274414610bd55761027d565b80633ccfd60b116101f3578063580cd46f116101ac578063580cd46f146108c15780636352211e1461092d5780636d5224181461099257806370a0823114610a46578063715018a614610aab57806374df39c914610ac25761027d565b80633ccfd60b1461070057806342842e0e1461071757806343f76c5f146107925780634f6ccce7146107cd5780634f9f6fe61461081c57806354b6f161146108965761027d565b806318160ddd1161024557806318160ddd1461052057806318e20a381461054b57806323b872dd146105765780632754b5d1146105f15780632f745c591461065657806333289a46146106c55761027d565b806301ffc9a71461028257806306fdde03146102f2578063081812fc14610382578063095ea7b3146103e757806315b56d1014610442575b600080fd5b34801561028e57600080fd5b506102da600480360360208110156102a557600080fd5b8101908080357bffffffffffffffffffffffffffffffffffffffffffffffffffffffff19169060200190929190505050611485565b60405180821515815260200191505060405180910390f35b3480156102fe57600080fd5b506103076114ed565b6040518080602001828103825283818151815260200191508051906020019080838360005b8381101561034757808201518184015260208101905061032c565b50505050905090810190601f1680156103745780820380516001836020036101000a031916815260200191505b509250505060405180910390f35b34801561038e57600080fd5b506103bb600480360360208110156103a557600080fd5b810190808035906020019092919050505061158f565b604051808273ffffffffffffffffffffffffffffffffffffffff16815260200191505060405180910390f35b3480156103f357600080fd5b506104406004803603604081101561040a57600080fd5b81019080803573ffffffffffffffffffffffffffffffffffffffff1690602001909291908035906020019092919050505061162a565b005b34801561044e57600080fd5b506105086004803603602081101561046557600080fd5b810190808035906020019064010000000081111561048257600080fd5b82018360208201111561049457600080fd5b803590602001918460018302840111640100000000831117156104b657600080fd5b91908080601f016020809104026020016040519081016040528093929190818152602001838380828437600081840152601f19601f82011690508083019250505050505050919291929050505061176e565b60405180821515815260200191505060405180910390f35b34801561052c57600080fd5b506105356117f6565b6040518082815260200191505060405180910390f35b34801561055757600080fd5b50610560611807565b6040518082815260200191505060405180910390f35b34801561058257600080fd5b506105ef6004803603606081101561059957600080fd5b81019080803573ffffffffffffffffffffffffffffffffffffffff169060200190929190803573ffffffffffffffffffffffffffffffffffffffff16906020019092919080359060200190929190505050611814565b005b3480156105fd57600080fd5b5061062a6004803603602081101561061457600080fd5b810190808035906020019092919050505061188a565b604051808273ffffffffffffffffffffffffffffffffffffffff16815260200191505060405180910390f35b34801561066257600080fd5b506106af6004803603604081101561067957600080fd5b81019080803573ffffffffffffffffffffffffffffffffffffffff1690602001909291908035906020019092919050505061191b565b6040518082815260200191505060405180910390f35b3480156106d157600080fd5b506106fe600480360360208110156106e857600080fd5b8101908080359060200190929190505050611976565b005b34801561070c57600080fd5b50610715611b73565b005b34801561072357600080fd5b506107906004803603606081101561073a57600080fd5b81019080803573ffffffffffffffffffffffffffffffffffffffff169060200190929190803573ffffffffffffffffffffffffffffffffffffffff16906020019092919080359060200190929190505050611c8e565b005b34801561079e57600080fd5b506107cb600480360360208110156107b557600080fd5b8101908080359060200190929190505050611cae565b005b3480156107d957600080fd5b50610806600480360360208110156107f057600080fd5b8101908080359060200190929190505050612049565b6040518082815260200191505060405180910390f35b34801561082857600080fd5b506108556004803603602081101561083f57600080fd5b810190808035906020019092919050505061206c565b604051808573ffffffffffffffffffffffffffffffffffffffff16815260200184815260200183815260200182815260200194505050505060405180910390f35b3480156108a257600080fd5b506108ab61210a565b6040518082815260200191505060405180910390f35b3480156108cd57600080fd5b506108fa600480360360208110156108e457600080fd5b8101908080359060200190929190505050612117565b604051808373ffffffffffffffffffffffffffffffffffffffff1681526020018281526020019250505060405180910390f35b34801561093957600080fd5b506109666004803603602081101561095057600080fd5b810190808035906020019092919050505061216b565b604051808273ffffffffffffffffffffffffffffffffffffffff16815260200191505060405180910390f35b34801561099e57600080fd5b506109cb600480360360208110156109b557600080fd5b81019080803590602001909291905050506121a2565b6040518080602001828103825283818151815260200191508051906020019080838360005b83811015610a0b5780820151818401526020810190506109f0565b50505050905090810190601f168015610a385780820380516001836020036101000a031916815260200191505b509250505060405180910390f35b348015610a5257600080fd5b50610a9560048036036020811015610a6957600080fd5b81019080803573ffffffffffffffffffffffffffffffffffffffff169060200190929190505050612257565b6040518082815260200191505060405180910390f35b348015610ab757600080fd5b50610ac061232c565b005b348015610ace57600080fd5b50610ad76124b2565b005b348015610ae557600080fd5b50610aee61261c565b6040518082815260200191505060405180910390f35b348015610b1057600080fd5b50610b19612622565b6040518082815260200191505060405180910390f35b348015610b3b57600080fd5b50610b4461262a565b604051808273ffffffffffffffffffffffffffffffffffffffff16815260200191505060405180910390f35b348015610b7c57600080fd5b50610bbf60048036036020811015610b9357600080fd5b81019080803573ffffffffffffffffffffffffffffffffffffffff169060200190929190505050612653565b6040518082815260200191505060405180910390f35b610c0160048036036020811015610beb57600080fd5b810190808035906020019092919050505061269c565b005b348015610c0f57600080fd5b50610cc960048036036020811015610c2657600080fd5b8101908080359060200190640100000000811115610c4357600080fd5b820183602082011115610c5557600080fd5b80359060200191846001830284011164010000000083111715610c7757600080fd5b91908080601f016020809104026020016040519081016040528093929190818152602001838380828437600081840152601f19601f8201169050808301925050505050505091929192905050506129a3565b6040518080602001828103825283818151815260200191508051906020019080838360005b83811015610d09578082015181840152602081019050610cee565b50505050905090810190601f168015610d365780820380516001836020036101000a031916815260200191505b509250505060405180910390f35b348015610d5057600080fd5b50610d59612b1f565b6040518082815260200191505060405180910390f35b348015610d7b57600080fd5b50610d84612b27565b6040518080602001828103825283818151815260200191508051906020019080838360005b83811015610dc4578082015181840152602081019050610da9565b50505050905090810190601f168015610df15780820380516001836020036101000a031916815260200191505b509250505060405180910390f35b348015610e0b57600080fd5b50610ec560048036036020811015610e2257600080fd5b8101908080359060200190640100000000811115610e3f57600080fd5b820183602082011115610e5157600080fd5b80359060200191846001830284011164010000000083111715610e7357600080fd5b91908080601f016020809104026020016040519081016040528093929190818152602001838380828437600081840152601f19601f820116905080830192505050505050509192919290505050612bc9565b60405180821515815260200191505060405180910390f35b348015610ee957600080fd5b50610f3860048036036040811015610f0057600080fd5b81019080803573ffffffffffffffffffffffffffffffffffffffff169060200190929190803515159060200190929190505050612ed1565b005b348015610f4657600080fd5b50610fa760048036036080811015610f5d57600080fd5b81019080803590602001909291908035906020019092919080359060200190929190803573ffffffffffffffffffffffffffffffffffffffff169060200190929190505050613087565b005b348015610fb557600080fd5b50610fbe61372f565b6040518080602001828103825283818151815260200191508051906020019080838360005b83811015610ffe578082015181840152602081019050610fe3565b50505050905090810190601f16801561102b5780820380516001836020036101000a031916815260200191505b509250505060405180910390f35b34801561104557600080fd5b5061104e61374b565b6040518082815260200191505060405180910390f35b34801561107057600080fd5b506111746004803603608081101561108757600080fd5b81019080803573ffffffffffffffffffffffffffffffffffffffff169060200190929190803573ffffffffffffffffffffffffffffffffffffffff16906020019092919080359060200190929190803590602001906401000000008111156110ee57600080fd5b82018360208201111561110057600080fd5b8035906020019184600183028401116401000000008311171561112257600080fd5b91908080601f016020809104026020016040519081016040528093929190818152602001838380828437600081840152601f19601f820116905080830192505050505050509192919290505050613751565b005b34801561118257600080fd5b506111af6004803603602081101561119957600080fd5b81019080803590602001909291905050506137c9565b60405180821515815260200191505060405180910390f35b3480156111d357600080fd5b50611297600480360360408110156111ea57600080fd5b81019080803590602001909291908035906020019064010000000081111561121157600080fd5b82018360208201111561122357600080fd5b8035906020019184600183028401116401000000008311171561124557600080fd5b91908080601f016020809104026020016040519081016040528093929190818152602001838380828437600081840152601f19601f8201169050808301925050505050505091929192905050506137f3565b005b3480156112a557600080fd5b506112ae613ec5565b6040518082815260200191505060405180910390f35b3480156112d057600080fd5b506112d9613ecb565b6040518082815260200191505060405180910390f35b61131b6004803603602081101561130557600080fd5b8101908080359060200190929190505050613ed1565b005b34801561132957600080fd5b5061138c6004803603604081101561134057600080fd5b81019080803573ffffffffffffffffffffffffffffffffffffffff169060200190929190803573ffffffffffffffffffffffffffffffffffffffff1690602001909291905050506140bb565b60405180821515815260200191505060405180910390f35b3480156113b057600080fd5b506113dd600480360360208110156113c757600080fd5b810190808035906020019092919050505061414f565b604051808273ffffffffffffffffffffffffffffffffffffffff16815260200191505060405180910390f35b34801561141557600080fd5b506114586004803603602081101561142c57600080fd5b81019080803573ffffffffffffffffffffffffffffffffffffffff169060200190929190505050614186565b005b34801561146657600080fd5b5061146f614391565b6040518082815260200191505060405180910390f35b600060016000837bffffffffffffffffffffffffffffffffffffffffffffffffffffffff19167bffffffffffffffffffffffffffffffffffffffffffffffffffffffff1916815260200190815260200160002060009054906101000a900460ff169050919050565b606060198054600181600116156101000203166002900480601f0160208091040260200160405190810160405280929190818152602001828054600181600116156101000203166002900480156115855780601f1061155a57610100808354040283529160200191611585565b820191906000526020600020905b81548152906001019060200180831161156857829003601f168201915b5050505050905090565b600061159a82614542565b6115ef576040517f08c379a000000000000000000000000000000000000000000000000000000000815260040180806020018281038252602c815260200180615d35602c913960400191505060405180910390fd5b6014600083815260200190815260200160002060009054906101000a900473ffffffffffffffffffffffffffffffffffffffff169050919050565b60006116358261216b565b90508073ffffffffffffffffffffffffffffffffffffffff168373ffffffffffffffffffffffffffffffffffffffff1614156116bc576040517f08c379a0000000000000000000000000000000000000000000000000000000008152600401808060200182810382526021815260200180615e316021913960400191505060405180910390fd5b8073ffffffffffffffffffffffffffffffffffffffff166116db61455f565b73ffffffffffffffffffffffffffffffffffffffff16148061170a57506117098161170461455f565b6140bb565b5b61175f576040517f08c379a0000000000000000000000000000000000000000000000000000000008152600401808060200182810382526038815260200180615c276038913960400191505060405180910390fd5b6117698383614567565b505050565b6000601661177b836129a3565b6040518082805190602001908083835b602083106117ae578051825260208201915060208101905060208303925061178b565b6001836020036101000a038019825116818451168082178552505050505050905001915050908152602001604051809103902060009054906101000a900460ff169050919050565b60006118026010614620565b905090565b6212750063604241ab0181565b61182561181f61455f565b82614635565b61187a576040517f08c379a0000000000000000000000000000000000000000000000000000000008152600401808060200182810382526031815260200180615e836031913960400191505060405180910390fd5b611885838383614729565b505050565b6000600b6000838152602001908152602001600020544211806118d15750600015156008600084815260200190815260200160002060009054906101000a900460ff161515145b156118df5760009050611916565b600c600083815260200190815260200160002060009054906101000a900473ffffffffffffffffffffffffffffffffffffffff1690505b919050565b600061196e82600f60008673ffffffffffffffffffffffffffffffffffffffff1673ffffffffffffffffffffffffffffffffffffffff16815260200190815260200160002061496c90919063ffffffff16565b905092915050565b6005600082815260200190815260200160002060009054906101000a900473ffffffffffffffffffffffffffffffffffffffff1673ffffffffffffffffffffffffffffffffffffffff163373ffffffffffffffffffffffffffffffffffffffff1614611a2d576040517f08c379a0000000000000000000000000000000000000000000000000000000008152600401808060200182810382526025815260200180615b436025913960400191505060405180910390fd5b600015156008600083815260200190815260200160002060009054906101000a900460ff16151514611aaa576040517f08c379a0000000000000000000000000000000000000000000000000000000008152600401808060200182810382526027815260200180615ac46027913960400191505060405180910390fd5b3373ffffffffffffffffffffffffffffffffffffffff166108fc60066000848152602001908152602001600020549081150290604051600060405180830381858888f19350505050158015611b03573d6000803e3d6000fd5b506000600660008381526020019081526020016000208190555060006005600083815260200190815260200160002060006101000a81548173ffffffffffffffffffffffffffffffffffffffff021916908373ffffffffffffffffffffffffffffffffffffffff16021790555050565b611b7b61455f565b73ffffffffffffffffffffffffffffffffffffffff1660008054906101000a900473ffffffffffffffffffffffffffffffffffffffff1673ffffffffffffffffffffffffffffffffffffffff1614611c3b576040517f08c379a00000000000000000000000000000000000000000000000000000000081526004018080602001828103825260208152602001807f4f776e61626c653a2063616c6c6572206973206e6f7420746865206f776e657281525060200191505060405180910390fd5b3373ffffffffffffffffffffffffffffffffffffffff166108fc6004549081150290604051600060405180830381858888f19350505050158015611c83573d6000803e3d6000fd5b506000600481905550565b611ca983838360405180602001604052806000815250613751565b505050565b6005600082815260200190815260200160002060009054906101000a900473ffffffffffffffffffffffffffffffffffffffff1673ffffffffffffffffffffffffffffffffffffffff163373ffffffffffffffffffffffffffffffffffffffff1614611d65576040517f08c379a0000000000000000000000000000000000000000000000000000000008152600401808060200182810382526035815260200180615eb46035913960400191505060405180910390fd5b600d600082815260200190815260200160002060009054906101000a900473ffffffffffffffffffffffffffffffffffffffff1673ffffffffffffffffffffffffffffffffffffffff163373ffffffffffffffffffffffffffffffffffffffff1614611e1c576040517f08c379a000000000000000000000000000000000000000000000000000000000815260040180806020018281038252602a815260200180615de4602a913960400191505060405180910390fd5b600115156008600083815260200190815260200160002060009054906101000a900460ff1615151415611e9a576040517f08c379a0000000000000000000000000000000000000000000000000000000008152600401808060200182810382526027815260200180615ac46027913960400191505060405180910390fd5b42600960008381526020019081526020016000205411611f22576040517f08c379a000000000000000000000000000000000000000000000000000000000815260040180806020018281038252601b8152602001807f41677265656d656e7420616c726561647920657870697265642021000000000081525060200191505060405180910390fd5b60006005600083815260200190815260200160002060006101000a81548173ffffffffffffffffffffffffffffffffffffffff021916908373ffffffffffffffffffffffffffffffffffffffff1602179055506000600d600083815260200190815260200160002060006101000a81548173ffffffffffffffffffffffffffffffffffffffff021916908373ffffffffffffffffffffffffffffffffffffffff16021790555033600c600083815260200190815260200160002060006101000a81548173ffffffffffffffffffffffffffffffffffffffff021916908373ffffffffffffffffffffffffffffffffffffffff16021790555060016008600083815260200190815260200160002060006101000a81548160ff02191690831515021790555050565b60008061206083601061498690919063ffffffff16565b50905080915050919050565b600080600080600042600960008881526020019081526020016000205410612095576000612098565b60015b60ff169050600d600087815260200190815260200160002060009054906101000a900473ffffffffffffffffffffffffffffffffffffffff16600a600088815260200190815260200160002054600b600089815260200190815260200160002054839450945094509450509193509193565b6863345a083e94d8000081565b6000806005600084815260200190815260200160002060009054906101000a900473ffffffffffffffffffffffffffffffffffffffff16600660008581526020019081526020016000205491509150915091565b600061219b82604051806060016040528060298152602001615c896029913960106149b29092919063ffffffff16565b9050919050565b6060601560008381526020019081526020016000208054600181600116156101000203166002900480601f01602080910402602001604051908101604052809291908181526020018280546001816001161561010002031660029004801561224b5780601f106122205761010080835404028352916020019161224b565b820191906000526020600020905b81548152906001019060200180831161222e57829003601f168201915b50505050509050919050565b60008073ffffffffffffffffffffffffffffffffffffffff168273ffffffffffffffffffffffffffffffffffffffff1614156122de576040517f08c379a000000000000000000000000000000000000000000000000000000000815260040180806020018281038252602a815260200180615c5f602a913960400191505060405180910390fd5b612325600f60008473ffffffffffffffffffffffffffffffffffffffff1673ffffffffffffffffffffffffffffffffffffffff1681526020019081526020016000206149d1565b9050919050565b61233461455f565b73ffffffffffffffffffffffffffffffffffffffff1660008054906101000a900473ffffffffffffffffffffffffffffffffffffffff1673ffffffffffffffffffffffffffffffffffffffff16146123f4576040517f08c379a00000000000000000000000000000000000000000000000000000000081526004018080602001828103825260208152602001807f4f776e61626c653a2063616c6c6572206973206e6f7420746865206f776e657281525060200191505060405180910390fd5b600073ffffffffffffffffffffffffffffffffffffffff1660008054906101000a900473ffffffffffffffffffffffffffffffffffffffff1673ffffffffffffffffffffffffffffffffffffffff167f8be0079c531659141344cd1fd0a4f28419497f9722a3daafe3b4186f6b6457e060405160405180910390a360008060006101000a81548173ffffffffffffffffffffffffffffffffffffffff021916908373ffffffffffffffffffffffffffffffffffffffff160217905550565b60006003541461252a576040517f08c379a000000000000000000000000000000000000000000000000000000000815260040180806020018281038252601d8152602001807f5374617274696e6720696e64657820697320616c72656164792073657400000081525060200191505060405180910390fd5b600060025414156125a3576040517f08c379a00000000000000000000000000000000000000000000000000000000081526004018080602001828103825260208152602001807f5374617274696e6720696e64657820626c6f636b206d7573742062652073657481525060200191505060405180910390fd5b6106fa6002544060001c816125b457fe5b0660038190555060ff6125d2600254436149e690919063ffffffff16565b11156125f2576106fa600143034060001c816125ea57fe5b066003819055505b6000600354141561261a576126136001600354614a3090919063ffffffff16565b6003819055505b565b6106fa81565b600042905090565b60008060009054906101000a900473ffffffffffffffffffffffffffffffffffffffff16905090565b6000600e60008373ffffffffffffffffffffffffffffffffffffffff1673ffffffffffffffffffffffffffffffffffffffff168152602001908152602001600020549050919050565b6106fa6126a76117f6565b1061271a576040517f08c379a00000000000000000000000000000000000000000000000000000000081526004018080602001828103825260168152602001807f53616c652068617320616c726561647920656e6465640000000000000000000081525060200191505060405180910390fd5b60008111612773576040517f08c379a0000000000000000000000000000000000000000000000000000000008152600401808060200182810382526022815260200180615c056022913960400191505060405180910390fd5b60058111156127cd576040517f08c379a0000000000000000000000000000000000000000000000000000000008152600401808060200182810382526031815260200180615e526031913960400191505060405180910390fd5b6106fa6127ea826127dc6117f6565b614a3090919063ffffffff16565b111561285e576040517f08c379a00000000000000000000000000000000000000000000000000000000081526004018080602001828103825260168152602001807f45786365656473204d41585f5055424c49435f4e46540000000000000000000081525060200191505060405180910390fd5b346128798261286b614391565b614ab890919063ffffffff16565b146128ec576040517f08c379a000000000000000000000000000000000000000000000000000000000815260040180806020018281038252601d8152602001807f4253432076616c75652073656e74206973206e6f7420636f727265637400000081525060200191505060405180910390fd5b60005b818110156129595760006129016117f6565b90506212750063604241ab014210156129415760016017600083815260200190815260200160002060006101000a81548160ff0219169083151502179055505b61294b3382614b3e565b5080806001019150506128ef565b503460045401600481905550600060025414801561299357506106fa61297d6117f6565b148061299257506212750063604241ab014210155b5b156129a057436002819055505b50565b6060808290506060815167ffffffffffffffff811180156129c357600080fd5b506040519080825280601f01601f1916602001820160405280156129f65781602001600182028036833780820191505090505b50905060005b8251811015612b14576041838281518110612a1357fe5b602001015160f81c60f81b60f81c60ff1610158015612a4f5750605a838281518110612a3b57fe5b602001015160f81c60f81b60f81c60ff1611155b15612ab4576020838281518110612a6257fe5b602001015160f81c60f81b60f81c0160f81b828281518110612a8057fe5b60200101907effffffffffffffffffffffffffffffffffffffffffffffffffffffffffffff1916908160001a905350612b07565b828181518110612ac057fe5b602001015160f81c60f81b828281518110612ad757fe5b60200101907effffffffffffffffffffffffffffffffffffffffffffffffffffffffffffff1916908160001a9053505b80806001019150506129fc565b508092505050919050565b63604241ab81565b6060601a8054600181600116156101000203166002900480601f016020809104026020016040519081016040528092919081815260200182805460018160011615610100020316600290048015612bbf5780601f10612b9457610100808354040283529160200191612bbf565b820191906000526020600020905b815481529060010190602001808311612ba257829003601f168201915b5050505050905090565b60006060829050600181511015612be4576000915050612ecc565b601981511115612bf8576000915050612ecc565b602060f81b81600081518110612c0a57fe5b602001015160f81c60f81b7effffffffffffffffffffffffffffffffffffffffffffffffffffffffffffff19161415612c47576000915050612ecc565b602060f81b81600183510381518110612c5c57fe5b602001015160f81c60f81b7effffffffffffffffffffffffffffffffffffffffffffffffffffffffffffff19161415612c99576000915050612ecc565b600081600081518110612ca857fe5b602001015160f81c60f81b905060005b8251811015612ec4576000838281518110612ccf57fe5b602001015160f81c60f81b9050602060f81b817effffffffffffffffffffffffffffffffffffffffffffffffffffffffffffff1916148015612d365750602060f81b837effffffffffffffffffffffffffffffffffffffffffffffffffffffffffffff1916145b15612d48576000945050505050612ecc565b603060f81b817effffffffffffffffffffffffffffffffffffffffffffffffffffffffffffff191610158015612da45750603960f81b817effffffffffffffffffffffffffffffffffffffffffffffffffffffffffffff191611155b158015612e0a5750604160f81b817effffffffffffffffffffffffffffffffffffffffffffffffffffffffffffff191610158015612e085750605a60f81b817effffffffffffffffffffffffffffffffffffffffffffffffffffffffffffff191611155b155b8015612e6f5750606160f81b817effffffffffffffffffffffffffffffffffffffffffffffffffffffffffffff191610158015612e6d5750607a60f81b817effffffffffffffffffffffffffffffffffffffffffffffffffffffffffffff191611155b155b8015612ea15750602060f81b817effffffffffffffffffffffffffffffffffffffffffffffffffffffffffffff191614155b15612eb3576000945050505050612ecc565b809250508080600101915050612cb8565b506001925050505b919050565b612ed961455f565b73ffffffffffffffffffffffffffffffffffffffff168273ffffffffffffffffffffffffffffffffffffffff161415612f7a576040517f08c379a00000000000000000000000000000000000000000000000000000000081526004018080602001828103825260198152602001807f4552433732313a20617070726f766520746f2063616c6c65720000000000000081525060200191505060405180910390fd5b8060186000612f8761455f565b73ffffffffffffffffffffffffffffffffffffffff1673ffffffffffffffffffffffffffffffffffffffff16815260200190815260200160002060008473ffffffffffffffffffffffffffffffffffffffff1673ffffffffffffffffffffffffffffffffffffffff16815260200190815260200160002060006101000a81548160ff0219169083151502179055508173ffffffffffffffffffffffffffffffffffffffff1661303461455f565b73ffffffffffffffffffffffffffffffffffffffff167f17307eab39ab6107e8899845ad3d59bd9653f200f220920489ca2b5937696c318360405180821515815260200191505060405180910390a35050565b60006130928561216b565b90508073ffffffffffffffffffffffffffffffffffffffff163373ffffffffffffffffffffffffffffffffffffffff1614613135576040517f08c379a000000000000000000000000000000000000000000000000000000000815260040180806020018281038252601f8152602001807f4552433732313a2063616c6c6572206973206e6f7420746865206f776e65720081525060200191505060405180910390fd5b83421061318d576040517f08c379a0000000000000000000000000000000000000000000000000000000008152600401808060200182810382526027815260200180615b686027913960400191505060405180910390fd5b8242106131e5576040517f08c379a0000000000000000000000000000000000000000000000000000000008152600401808060200182810382526025815260200180615ee96025913960400191505060405180910390fd5b82841061323d576040517f08c379a0000000000000000000000000000000000000000000000000000000008152600401808060200182810382526028815260200180615dbc6028913960400191505060405180910390fd5b8173ffffffffffffffffffffffffffffffffffffffff168173ffffffffffffffffffffffffffffffffffffffff1614156132df576040517f08c379a000000000000000000000000000000000000000000000000000000000815260040180806020018281038252601a8152602001807f596f752063616e6e6f742072656e7420796f757273656c66202100000000000081525060200191505060405180910390fd5b600073ffffffffffffffffffffffffffffffffffffffff16600c600087815260200190815260200160002060009054906101000a900473ffffffffffffffffffffffffffffffffffffffff1673ffffffffffffffffffffffffffffffffffffffff16146133d7576000600660008781526020019081526020016000205411156133d6573373ffffffffffffffffffffffffffffffffffffffff166108fc60066000888152602001908152602001600020549081150290604051600060405180830381858888f193505050501580156133bb573d6000803e3d6000fd5b50600060066000878152602001908152602001600020819055505b5b600b60008681526020019081526020016000205442111561350a576000600c600087815260200190815260200160002060006101000a81548173ffffffffffffffffffffffffffffffffffffffff021916908373ffffffffffffffffffffffffffffffffffffffff16021790555060006008600087815260200190815260200160002060006101000a81548160ff0219169083151502179055506000600d600087815260200190815260200160002060006101000a81548173ffffffffffffffffffffffffffffffffffffffff021916908373ffffffffffffffffffffffffffffffffffffffff1602179055506000600e60008473ffffffffffffffffffffffffffffffffffffffff1673ffffffffffffffffffffffffffffffffffffffff168152602001908152602001600020819055505b600073ffffffffffffffffffffffffffffffffffffffff16600d600087815260200190815260200160002060009054906101000a900473ffffffffffffffffffffffffffffffffffffffff1673ffffffffffffffffffffffffffffffffffffffff1614156136fa576000600c600087815260200190815260200160002060006101000a81548173ffffffffffffffffffffffffffffffffffffffff021916908373ffffffffffffffffffffffffffffffffffffffff16021790555083600a60008781526020019081526020016000208190555082600b6000878152602001908152602001600020819055506103844201600960008781526020019081526020016000208190555081600d600087815260200190815260200160002060006101000a81548173ffffffffffffffffffffffffffffffffffffffff021916908373ffffffffffffffffffffffffffffffffffffffff16021790555084600e60008473ffffffffffffffffffffffffffffffffffffffff1673ffffffffffffffffffffffffffffffffffffffff16815260200190815260200160002081905550847fe52d6a3499996e183474726203fe336e19493075b21650b80afec332cd61a96983604051808273ffffffffffffffffffffffffffffffffffffffff16815260200191505060405180910390a2613728565b847fc9990923a9f9a00529f6cca4b228bc934add939fac433895489a428421d78d8e60405160405180910390a25b5050505050565b604051806060016040528060408152602001615cb26040913981565b6106fa81565b61376261375c61455f565b83614635565b6137b7576040517f08c379a0000000000000000000000000000000000000000000000000000000008152600401808060200182810382526031815260200180615e836031913960400191505060405180910390fd5b6137c384848484614b5c565b50505050565b60006017600083815260200190815260200160002060009054906101000a900460ff169050919050565b60006137fe8361216b565b90508073ffffffffffffffffffffffffffffffffffffffff1661381f61455f565b73ffffffffffffffffffffffffffffffffffffffff16146138a8576040517f08c379a000000000000000000000000000000000000000000000000000000000815260040180806020018281038252601f8152602001807f4552433732313a2063616c6c6572206973206e6f7420746865206f776e65720081525060200191505060405180910390fd5b600115156138b583612bc9565b15151461392a576040517f08c379a00000000000000000000000000000000000000000000000000000000081526004018080602001828103825260148152602001807f4e6f7420612076616c6964206e6577206e616d6500000000000000000000000081525060200191505060405180910390fd5b600260156000858152602001908152602001600020604051808280546001816001161561010002031660029004801561399a5780601f1061397857610100808354040283529182019161399a565b820191906000526020600020905b815481529060010190602001808311613986575b5050915050602060405180830381855afa1580156139bc573d6000803e3d6000fd5b5050506040513d60208110156139d157600080fd5b81019080805190602001909291905050506002836040518082805190602001908083835b60208310613a1857805182526020820191506020810190506020830392506139f5565b6001836020036101000a038019825116818451168082178552505050505050905001915050602060405180830381855afa158015613a5a573d6000803e3d6000fd5b5050506040513d6020811015613a6f57600080fd5b81019080805190602001909291905050501415613ad7576040517f08c379a0000000000000000000000000000000000000000000000000000000008152600401808060200182810382526023815260200180615e0e6023913960400191505060405180910390fd5b60001515613ae48361176e565b151514613b59576040517f08c379a00000000000000000000000000000000000000000000000000000000081526004018080602001828103825260158152602001807f4e616d6520616c7265616479207265736572766564000000000000000000000081525060200191505060405180910390fd5b601b60009054906101000a900473ffffffffffffffffffffffffffffffffffffffff1673ffffffffffffffffffffffffffffffffffffffff166323b872dd33306863345a083e94d800006040518463ffffffff1660e01b8152600401808473ffffffffffffffffffffffffffffffffffffffff1681526020018373ffffffffffffffffffffffffffffffffffffffff1681526020018281526020019350505050602060405180830381600087803b158015613c1357600080fd5b505af1158015613c27573d6000803e3d6000fd5b505050506040513d6020811015613c3d57600080fd5b8101908080519060200190929190505050506000601560008581526020019081526020016000208054600181600116156101000203166002900490501115613d3657613d35601560008581526020019081526020016000208054600181600116156101000203166002900480601f016020809104026020016040519081016040528092919081815260200182805460018160011615610100020316600290048015613d295780601f10613cfe57610100808354040283529160200191613d29565b820191906000526020600020905b815481529060010190602001808311613d0c57829003601f168201915b50505050506000614bce565b5b613d41826001614bce565b81601560008581526020019081526020016000209080519060200190613d68929190615a04565b50601b60009054906101000a900473ffffffffffffffffffffffffffffffffffffffff1673ffffffffffffffffffffffffffffffffffffffff166342966c686863345a083e94d800006040518263ffffffff1660e01b815260040180828152602001915050602060405180830381600087803b158015613de757600080fd5b505af1158015613dfb573d6000803e3d6000fd5b505050506040513d6020811015613e1157600080fd5b810190808051906020019092919050505050827f7e632a301794d8d4a81ea7e20f37d1947158d36e66403af04ba85dd194b66f1b836040518080602001828103825283818151815260200191508051906020019080838360005b83811015613e86578082015181840152602081019050613e6b565b50505050905090810190601f168015613eb35780820380516001836020036101000a031916815260200191505b509250505060405180910390a2505050565b60035481565b60025481565b600115156008600083815260200190815260200160002060009054906101000a900460ff1615151415613f6c576040517f08c379a00000000000000000000000000000000000000000000000000000000081526004018080602001828103825260208152602001807f204e4654206973206e6f7420617661696c61626c6520666f722052656e74202181525060200191505060405180910390fd5b6000600660008381526020019081526020016000205414613fd8576040517f08c379a0000000000000000000000000000000000000000000000000000000008152600401808060200182810382526032815260200180615d8a6032913960400191505060405180910390fd5b6000341161404e576040517f08c379a00000000000000000000000000000000000000000000000000000000081526004018080602001828103825260198152602001807f204465706f7369742063616e6e6f74206265207a65726f20210000000000000081525060200191505060405180910390fd5b336005600083815260200190815260200160002060006101000a81548173ffffffffffffffffffffffffffffffffffffffff021916908373ffffffffffffffffffffffffffffffffffffffff16021790555034600660008381526020019081526020016000208190555050565b6000601860008473ffffffffffffffffffffffffffffffffffffffff1673ffffffffffffffffffffffffffffffffffffffff16815260200190815260200160002060008373ffffffffffffffffffffffffffffffffffffffff1673ffffffffffffffffffffffffffffffffffffffff16815260200190815260200160002060009054906101000a900460ff16905092915050565b600061417f82604051806060016040528060298152602001615c896029913960126149b29092919063ffffffff16565b9050919050565b61418e61455f565b73ffffffffffffffffffffffffffffffffffffffff1660008054906101000a900473ffffffffffffffffffffffffffffffffffffffff1673ffffffffffffffffffffffffffffffffffffffff161461424e576040517f08c379a00000000000000000000000000000000000000000000000000000000081526004018080602001828103825260208152602001807f4f776e61626c653a2063616c6c6572206973206e6f7420746865206f776e657281525060200191505060405180910390fd5b600073ffffffffffffffffffffffffffffffffffffffff168173ffffffffffffffffffffffffffffffffffffffff1614156142d4576040517f08c379a0000000000000000000000000000000000000000000000000000000008152600401808060200182810382526026815260200180615b1d6026913960400191505060405180910390fd5b8073ffffffffffffffffffffffffffffffffffffffff1660008054906101000a900473ffffffffffffffffffffffffffffffffffffffff1673ffffffffffffffffffffffffffffffffffffffff167f8be0079c531659141344cd1fd0a4f28419497f9722a3daafe3b4186f6b6457e060405160405180910390a3806000806101000a81548173ffffffffffffffffffffffffffffffffffffffff021916908373ffffffffffffffffffffffffffffffffffffffff16021790555050565b600063604241ab42101561440d576040517f08c379a00000000000000000000000000000000000000000000000000000000081526004018080602001828103825260148152602001807f53616c6520686173206e6f74207374617274656400000000000000000000000081525060200191505060405180910390fd5b6106fa6144186117f6565b1061448b576040517f08c379a00000000000000000000000000000000000000000000000000000000081526004018080602001828103825260168152602001807f53616c652068617320616c726561647920656e6465640000000000000000000081525060200191505060405180910390fd5b60006144956117f6565b90506106f381106144b157678ac7230489e8000091505061453f565b6105f981106144cb576724150e398004000091505061453f565b61049b81106144e55767136dcc951d8c000091505061453f565b61031581106144ff57670c7d713b49da000091505061453f565b6101c18110614519576706f05b59d3b2000091505061453f565b60c7811061453257670429d069189e000091505061453f565b67016345785d8a00009150505b90565b6000614558826010614c5b90919063ffffffff16565b9050919050565b600033905090565b816014600083815260200190815260200160002060006101000a81548173ffffffffffffffffffffffffffffffffffffffff021916908373ffffffffffffffffffffffffffffffffffffffff160217905550808273ffffffffffffffffffffffffffffffffffffffff166145da8361216b565b73ffffffffffffffffffffffffffffffffffffffff167f8c5be1e5ebec7d5bd14f71427d1e84f3dd0314c0f7b2291e5b200ac8c7c3b92560405160405180910390a45050565b600061462e82600001614c75565b9050919050565b600061464082614542565b614695576040517f08c379a000000000000000000000000000000000000000000000000000000000815260040180806020018281038252602c815260200180615bd9602c913960400191505060405180910390fd5b60006146a08361216b565b90508073ffffffffffffffffffffffffffffffffffffffff168473ffffffffffffffffffffffffffffffffffffffff16148061470f57508373ffffffffffffffffffffffffffffffffffffffff166146f78461158f565b73ffffffffffffffffffffffffffffffffffffffff16145b80614720575061471f81856140bb565b5b91505092915050565b8273ffffffffffffffffffffffffffffffffffffffff166147498261216b565b73ffffffffffffffffffffffffffffffffffffffff16146147b5576040517f08c379a0000000000000000000000000000000000000000000000000000000008152600401808060200182810382526029815260200180615d616029913960400191505060405180910390fd5b600073ffffffffffffffffffffffffffffffffffffffff168273ffffffffffffffffffffffffffffffffffffffff16141561483b576040517f08c379a0000000000000000000000000000000000000000000000000000000008152600401808060200182810382526024815260200180615b8f6024913960400191505060405180910390fd5b614846838383614c86565b614851600082614567565b6148a281600f60008673ffffffffffffffffffffffffffffffffffffffff1673ffffffffffffffffffffffffffffffffffffffff168152602001908152602001600020614c8b90919063ffffffff16565b506148f481600f60008573ffffffffffffffffffffffffffffffffffffffff1673ffffffffffffffffffffffffffffffffffffffff168152602001908152602001600020614ca590919063ffffffff16565b5061490b81836010614cbf9092919063ffffffff16565b50808273ffffffffffffffffffffffffffffffffffffffff168473ffffffffffffffffffffffffffffffffffffffff167fddf252ad1be2c89b69c2b068fc378daa952ba7f163c4a11628f55a4df523b3ef60405160405180910390a4505050565b600061497b8360000183614cf4565b60001c905092915050565b6000806000806149998660000186614d77565b915091508160001c8160001c9350935050509250929050565b60006149c5846000018460001b84614e10565b60001c90509392505050565b60006149df82600001614f06565b9050919050565b6000614a2883836040518060400160405280601e81526020017f536166654d6174683a207375627472616374696f6e206f766572666c6f770000815250614f17565b905092915050565b600080828401905083811015614aae576040517f08c379a000000000000000000000000000000000000000000000000000000000815260040180806020018281038252601b8152602001807f536166654d6174683a206164646974696f6e206f766572666c6f77000000000081525060200191505060405180910390fd5b8091505092915050565b600080831415614acb5760009050614b38565b6000828402905082848281614adc57fe5b0414614b33576040517f08c379a0000000000000000000000000000000000000000000000000000000008152600401808060200182810382526021815260200180615d146021913960400191505060405180910390fd5b809150505b92915050565b614b58828260405180602001604052806000815250614fd7565b5050565b614b67848484614729565b614b7384848484615048565b614bc8576040517f08c379a0000000000000000000000000000000000000000000000000000000008152600401808060200182810382526032815260200180615aeb6032913960400191505060405180910390fd5b50505050565b806016614bda846129a3565b6040518082805190602001908083835b60208310614c0d5780518252602082019150602081019050602083039250614bea565b6001836020036101000a038019825116818451168082178552505050505050905001915050908152602001604051809103902060006101000a81548160ff0219169083151502179055505050565b6000614c6d836000018360001b615261565b905092915050565b600081600001805490509050919050565b505050565b6000614c9d836000018360001b615284565b905092915050565b6000614cb7836000018360001b61536c565b905092915050565b6000614ceb846000018460001b8473ffffffffffffffffffffffffffffffffffffffff1660001b6153dc565b90509392505050565b600081836000018054905011614d55576040517f08c379a0000000000000000000000000000000000000000000000000000000008152600401808060200182810382526022815260200180615aa26022913960400191505060405180910390fd5b826000018281548110614d6457fe5b9060005260206000200154905092915050565b60008082846000018054905011614dd9576040517f08c379a0000000000000000000000000000000000000000000000000000000008152600401808060200182810382526022815260200180615cf26022913960400191505060405180910390fd5b6000846000018481548110614dea57fe5b906000526020600020906002020190508060000154816001015492509250509250929050565b60008084600101600085815260200190815260200160002054905060008114158390614ed7576040517f08c379a00000000000000000000000000000000000000000000000000000000081526004018080602001828103825283818151815260200191508051906020019080838360005b83811015614e9c578082015181840152602081019050614e81565b50505050905090810190601f168015614ec95780820380516001836020036101000a031916815260200191505b509250505060405180910390fd5b50846000016001820381548110614eea57fe5b9060005260206000209060020201600101549150509392505050565b600081600001805490509050919050565b6000838311158290614fc4576040517f08c379a00000000000000000000000000000000000000000000000000000000081526004018080602001828103825283818151815260200191508051906020019080838360005b83811015614f89578082015181840152602081019050614f6e565b50505050905090810190601f168015614fb65780820380516001836020036101000a031916815260200191505b509250505060405180910390fd5b5060008385039050809150509392505050565b614fe183836154b8565b614fee6000848484615048565b615043576040517f08c379a0000000000000000000000000000000000000000000000000000000008152600401808060200182810382526032815260200180615aeb6032913960400191505060405180910390fd5b505050565b60006150698473ffffffffffffffffffffffffffffffffffffffff16615741565b6150765760019050615259565b60606151e063150b7a0260e01b61508b61455f565b888787604051602401808573ffffffffffffffffffffffffffffffffffffffff1681526020018473ffffffffffffffffffffffffffffffffffffffff16815260200183815260200180602001828103825283818151815260200191508051906020019080838360005b8381101561510f5780820151818401526020810190506150f4565b50505050905090810190601f16801561513c5780820380516001836020036101000a031916815260200191505b5095505050505050604051602081830303815290604052907bffffffffffffffffffffffffffffffffffffffffffffffffffffffff19166020820180517bffffffffffffffffffffffffffffffffffffffffffffffffffffffff8381831617835250505050604051806060016040528060328152602001615aeb603291398773ffffffffffffffffffffffffffffffffffffffff166157549092919063ffffffff16565b905060008180602001905160208110156151f957600080fd5b8101908080519060200190929190505050905063150b7a0260e01b7bffffffffffffffffffffffffffffffffffffffffffffffffffffffff1916817bffffffffffffffffffffffffffffffffffffffffffffffffffffffff191614925050505b949350505050565b600080836001016000848152602001908152602001600020541415905092915050565b6000808360010160008481526020019081526020016000205490506000811461536057600060018203905060006001866000018054905003905060008660000182815481106152cf57fe5b90600052602060002001549050808760000184815481106152ec57fe5b906000526020600020018190555060018301876001016000838152602001908152602001600020819055508660000180548061532457fe5b60019003818190600052602060002001600090559055866001016000878152602001908152602001600020600090556001945050505050615366565b60009150505b92915050565b6000615378838361576c565b6153d15782600001829080600181540180825580915050600190039060005260206000200160009091909190915055826000018054905083600101600084815260200190815260200160002081905550600190506153d6565b600090505b92915050565b6000808460010160008581526020019081526020016000205490506000811415615483578460000160405180604001604052808681526020018581525090806001815401808255809150506001900390600052602060002090600202016000909190919091506000820151816000015560208201518160010155505084600001805490508560010160008681526020019081526020016000208190555060019150506154b1565b8285600001600183038154811061549657fe5b90600052602060002090600202016001018190555060009150505b9392505050565b600073ffffffffffffffffffffffffffffffffffffffff168273ffffffffffffffffffffffffffffffffffffffff16141561555b576040517f08c379a00000000000000000000000000000000000000000000000000000000081526004018080602001828103825260208152602001807f4552433732313a206d696e7420746f20746865207a65726f206164647265737381525060200191505060405180910390fd5b61556481614542565b156155d7576040517f08c379a000000000000000000000000000000000000000000000000000000000815260040180806020018281038252601c8152602001807f4552433732313a20746f6b656e20616c7265616479206d696e7465640000000081525060200191505060405180910390fd5b6106fa6155e26117f6565b10615655576040517f08c379a00000000000000000000000000000000000000000000000000000000081526004018080602001828103825260168152602001807f53616c652068617320616c726561647920656e6465640000000000000000000081525060200191505060405180910390fd5b61566160008383614c86565b6156b281600f60008573ffffffffffffffffffffffffffffffffffffffff1673ffffffffffffffffffffffffffffffffffffffff168152602001908152602001600020614ca590919063ffffffff16565b506156c981836010614cbf9092919063ffffffff16565b506156e081836012614cbf9092919063ffffffff16565b50808273ffffffffffffffffffffffffffffffffffffffff16600073ffffffffffffffffffffffffffffffffffffffff167fddf252ad1be2c89b69c2b068fc378daa952ba7f163c4a11628f55a4df523b3ef60405160405180910390a45050565b600080823b905060008111915050919050565b6060615763848460008561578f565b90509392505050565b600080836001016000848152602001908152602001600020541415905092915050565b6060824710156157ea576040517f08c379a0000000000000000000000000000000000000000000000000000000008152600401808060200182810382526026815260200180615bb36026913960400191505060405180910390fd5b6157f385615741565b615865576040517f08c379a000000000000000000000000000000000000000000000000000000000815260040180806020018281038252601d8152602001807f416464726573733a2063616c6c20746f206e6f6e2d636f6e747261637400000081525060200191505060405180910390fd5b600060608673ffffffffffffffffffffffffffffffffffffffff1685876040518082805190602001908083835b602083106158b55780518252602082019150602081019050602083039250615892565b6001836020036101000a03801982511681845116808217855250505050505090500191505060006040518083038185875af1925050503d8060008114615917576040519150601f19603f3d011682016040523d82523d6000602084013e61591c565b606091505b509150915061592c828286615938565b92505050949350505050565b60608315615948578290506159fd565b60008351111561595b5782518084602001fd5b816040517f08c379a00000000000000000000000000000000000000000000000000000000081526004018080602001828103825283818151815260200191508051906020019080838360005b838110156159c25780820151818401526020810190506159a7565b50505050905090810190601f1680156159ef5780820380516001836020036101000a031916815260200191505b509250505060405180910390fd5b9392505050565b828054600181600116156101000203166002900490600052602060002090601f016020900481019282601f10615a4557805160ff1916838001178555615a73565b82800160010185558215615a73579182015b82811115615a72578251825591602001919060010190615a57565b5b509050615a809190615a84565b5090565b5b80821115615a9d576000816000905550600101615a85565b509056fe456e756d657261626c655365743a20696e646578206f7574206f6620626f756e647320596f75722072656e74616c2061677265656d656e7420697320696e2070726f677265737320214552433732313a207472616e7366657220746f206e6f6e20455243373231526563656976657220696d706c656d656e7465724f776e61626c653a206e6577206f776e657220697320746865207a65726f206164647265737320596f7520646f6e2774206861766520616e792072656e74616c206465706f73697473202152656e74616c2073746172742074696d652073686f756c6420626520696e2066757475726520214552433732313a207472616e7366657220746f20746865207a65726f2061646472657373416464726573733a20696e73756666696369656e742062616c616e636520666f722063616c6c4552433732313a206f70657261746f7220717565727920666f72206e6f6e6578697374656e7420746f6b656e596f75206d6179206e65656420746f206275792061746c656173742031204c414e444552433732313a20617070726f76652063616c6c6572206973206e6f74206f776e6572206e6f7220617070726f76656420666f7220616c6c4552433732313a2062616c616e636520717565727920666f7220746865207a65726f20616464726573734552433732313a206f776e657220717565727920666f72206e6f6e6578697374656e7420746f6b656e64663736306337373161643030366561636530643730353338336237343135383936376537386336653938306233356636373032343962353832326334326531456e756d657261626c654d61703a20696e646578206f7574206f6620626f756e6473536166654d6174683a206d756c7469706c69636174696f6e206f766572666c6f774552433732313a20617070726f76656420717565727920666f72206e6f6e6578697374656e7420746f6b656e4552433732313a207472616e73666572206f6620746f6b656e2074686174206973206e6f74206f776e20416c726561647920612074656e616e742069732077616974696e6720666f722072656e74616c20617070726f76616c202153746172742054696d652063616e6e6f74206265206d6f7265207468616e20456e6454696d6520212052657175657374204c414e44206f776e657220666f722072656e74616c2061677265656d656e7420214e6577206e616d652069732073616d65206173207468652063757272656e74206f6e654552433732313a20617070726f76616c20746f2063757272656e74206f776e6572596f75206d6179206e6f742062652061626c6520627579206d6f7265207468616e2035204c414e4473206174206f6e63654552433732313a207472616e736665722063616c6c6572206973206e6f74206f776e6572206e6f7220617070726f76656420596f7520646f6e2774206861766520616e792072656e74616c206465706f7369747320666f7220746865204c414e44206964202152656e74616c20656e642074696d652073686f756c6420626520696e206675747572652021a264697066735822122054be35ab7ab347af55b6335b9506610234cdeccc4475bce53daeb7094fcb3a1164736f6c63430007000033",
  "immutableReferences": {},
  "source": "// SPDX-License-Identifier: MIT\r\npragma solidity ^0.7.0;\r\n\r\nimport \"./ERC165/IERC165.sol\";\r\nimport \"./ERC165/ERC165.sol\";\r\nimport \"./utils/Address.sol\";\r\nimport \"./utils/EnumerableMap.sol\";\r\nimport \"./utils/EnumerableSet.sol\";\r\nimport \"./utils/SafeMath.sol\";\r\nimport \"./utils/Strings.sol\";\r\nimport \"./utils/Context.sol\";\r\nimport \"./utils/Ownable.sol\";\r\nimport \"./IERC20.sol\";\r\nimport \"./ISeeds.sol\";\r\nimport \"./IERC721Enumerable.sol\";\r\n\r\n/**\r\n * @title ERC-721 Non-Fungible Token Standard, optional metadata extension\r\n * @dev See https://eips.ethereum.org/EIPS/eip-721\r\n */\r\ninterface IERC721Metadata is IERC721 {\r\n\r\n    /**\r\n     * @dev Returns the token collection name.\r\n     */\r\n    function name() external view returns (string memory);\r\n\r\n    /**\r\n     * @dev Returns the token collection symbol.\r\n     */\r\n    function symbol() external view returns (string memory);\r\n}\r\n\r\n/**\r\n * @title ERC721 token receiver interface\r\n * @dev Interface for any contract that wants to support safeTransfers\r\n * from ERC721 asset contracts.\r\n */\r\ninterface IERC721Receiver {\r\n    /**\r\n     * @dev Whenever an {IERC721} `tokenId` token is transferred to this contract via {IERC721-safeTransferFrom}\r\n     * by `operator` from `from`, this function is called.\r\n     *\r\n     * It must return its Solidity selector to confirm the token transfer.\r\n     * If any other value is returned or the interface is not implemented by the recipient, the transfer will be reverted.\r\n     *\r\n     * The selector can be obtained in Solidity with `IERC721.onERC721Received.selector`.\r\n     */\r\n    function onERC721Received(address operator, address from, uint256 tokenId, bytes calldata data) external returns (bytes4);\r\n}\r\n\r\n/**\r\n * @title MarsPool Land contract\r\n * @dev Extends ERC721 Non-Fungible Token Standard basic implementation\r\n */\r\ncontract HelloWorld is Context, Ownable, ERC165, ISeeds, IERC721Metadata {\r\n    using SafeMath for uint256;\r\n    using Address for address;\r\n    using EnumerableSet for EnumerableSet.UintSet;\r\n    using EnumerableMap for EnumerableMap.UintToAddressMap;\r\n    using Strings for string;\r\n\r\n    // Public variables\r\n\r\n    // This is the provenance record of all MarsPool Land artwork in existence\r\n    string public constant MarsPoolLand_PROVENANCE = \"df760c771ad006eace0d705383b74158967e78c6e980b35f670249b5822c42e1\";\r\n\r\n    uint256 public constant SALE_START_TIMESTAMP = 1614954923;\r\n\r\n    // Time after which MarsPool Land are randomized and allotted\r\n    uint256 public constant REVEAL_TIMESTAMP = SALE_START_TIMESTAMP + (86400 * 14);\r\n\r\n    uint256 public constant NAME_CHANGE_PRICE = 1830 * (10 ** 18);\r\n\r\n    uint256 public constant MAX_NFT_SUPPLY = 1786;\r\n\t\r\n    uint256 public constant MAX_PUBLIC_NFT = 1786;\t\r\n\r\n    uint256 public startingIndexBlock;\r\n\r\n    uint256 public startingIndex;\r\n    \r\n    uint256 private SALE_BALANCE = 0;\r\n    \r\n\r\n    \r\n    // Mapping from token ID to tenant\r\n    mapping (uint256 => address) private _tenant;    \r\n    \r\n    // Mapping from token ID to tenantDeposit\r\n    mapping (uint256 => uint256) private _tenantDeposit;   \r\n    \r\n    // Mapping from token ID to rentalAmount\r\n    mapping (uint256 => uint256) private _rentalAmount;   \r\n    \r\n    // Mapping from token ID to rental status\r\n    mapping (uint256 => bool) private _isOnRent;   \r\n    \r\n\r\n   // Mapping from token ID to rental start    \r\n    mapping (uint256 => uint256) private _agreementExpiry; \r\n    \r\n   // Mapping from token ID to rental start    \r\n    mapping (uint256 => uint256) private _rent_start;   \r\n    \r\n   // Mapping from token ID to rental end\r\n    mapping (uint256 => uint256) private _rent_end;   \r\n\r\n    // Mapping from token ID to approved tenant\r\n    mapping (uint256 => address) private _approvedTenant;  \r\n\r\n    // Mapping from token ID to agreement tenant\r\n    mapping (uint256 => address) private _agreementTenant;  \r\n    \r\n    // Mapping from tenant address to token id\r\n    mapping (address => uint256) private _agreementTenantAddress;  \r\n\r\n    // Equals to `bytes4(keccak256(\"onERC721Received(address,address,uint256,bytes)\"))`\r\n    // which can be also obtained as `IERC721Receiver(0).onERC721Received.selector`\r\n    bytes4 private constant _ERC721_RECEIVED = 0x150b7a02;\r\n\r\n    // Mapping from holder address to their (enumerable) set of owned tokens\r\n    mapping (address => EnumerableSet.UintSet) private _holderTokens;\r\n\r\n    // Enumerable mapping from token ids to their owners\r\n    EnumerableMap.UintToAddressMap private _tokenOwners;\r\n\r\n    // Enumerable mapping from token ids to the 1st owners\r\n    EnumerableMap.UintToAddressMap private _initialOwners;\r\n\r\n\r\n    // Mapping from token ID to approved address\r\n    mapping (uint256 => address) private _tokenApprovals;\r\n\r\n    // Mapping from token ID to name\r\n    mapping (uint256 => string) private _tokenName;\r\n\r\n    // Mapping if certain name string has already been reserved\r\n    mapping (string => bool) private _nameReserved;\r\n\r\n    // Mapping from token ID to whether the MarsPool Land was minted before reveal\r\n    mapping (uint256 => bool) private _mintedBeforeReveal;\r\n\r\n    // Mapping from owner to operator approvals\r\n    mapping (address => mapping (address => bool)) private _operatorApprovals;\r\n\r\n    // Token name\r\n    string private _name;\r\n\r\n    // Token symbol\r\n    string private _symbol;\r\n\r\n    // Name change token address\r\n    address private _nctAddress;\r\n\r\n    /*\r\n     *     bytes4(keccak256('balanceOf(address)')) == 0x70a08231\r\n     *     bytes4(keccak256('ownerOf(uint256)')) == 0x6352211e\r\n     *     bytes4(keccak256('approve(address,uint256)')) == 0x095ea7b3\r\n     *     bytes4(keccak256('getApproved(uint256)')) == 0x081812fc\r\n     *     bytes4(keccak256('setApprovalForAll(address,bool)')) == 0xa22cb465\r\n     *     bytes4(keccak256('isApprovedForAll(address,address)')) == 0xe985e9c5\r\n     *     bytes4(keccak256('transferFrom(address,address,uint256)')) == 0x23b872dd\r\n     *     bytes4(keccak256('safeTransferFrom(address,address,uint256)')) == 0x42842e0e\r\n     *     bytes4(keccak256('safeTransferFrom(address,address,uint256,bytes)')) == 0xb88d4fde\r\n     *\r\n     *     => 0x70a08231 ^ 0x6352211e ^ 0x095ea7b3 ^ 0x081812fc ^\r\n     *        0xa22cb465 ^ 0xe985e9c5 ^ 0x23b872dd ^ 0x42842e0e ^ 0xb88d4fde == 0x80ac58cd\r\n     */\r\n    bytes4 private constant _INTERFACE_ID_ERC721 = 0x80ac58cd;\r\n\r\n    /*\r\n     *     bytes4(keccak256('name()')) == 0x06fdde03\r\n     *     bytes4(keccak256('symbol()')) == 0x95d89b41\r\n     *\r\n     *     => 0x06fdde03 ^ 0x95d89b41 == 0x93254542\r\n     */\r\n    bytes4 private constant _INTERFACE_ID_ERC721_METADATA = 0x93254542;\r\n\r\n    /*\r\n     *     bytes4(keccak256('totalSupply()')) == 0x18160ddd\r\n     *     bytes4(keccak256('tokenOfOwnerByIndex(address,uint256)')) == 0x2f745c59\r\n     *     bytes4(keccak256('tokenByIndex(uint256)')) == 0x4f6ccce7\r\n     *\r\n     *     => 0x18160ddd ^ 0x2f745c59 ^ 0x4f6ccce7 == 0x780e9d63\r\n     */\r\n    bytes4 private constant _INTERFACE_ID_ERC721_ENUMERABLE = 0x780e9d63;\r\n\r\n    // Events\r\n    event NameChange (uint256 indexed maskIndex, string newName);\r\n\r\n    // Events\r\n    event RentalApproved (uint256 indexed maskIndex, address tenant);\r\n\r\n    // Agreement Created for the tenant\r\n    event AgreementReady (uint256 indexed maskIndex, address tenant);\r\n\r\n    // Agreement already exist for the MarsPool Land\r\n    event AgreementExist (uint256 indexed maskIndex);\r\n    /**\r\n     * @dev Initializes the contract by setting a `name` and a `symbol` to the token collection.\r\n     */\r\n    constructor (string memory name, string memory symbol, address nctAddress) {\r\n        _name = name;\r\n        _symbol = symbol;\r\n        _nctAddress = nctAddress;\r\n\r\n        // register the supported interfaces to conform to ERC721 via ERC165\r\n        _registerInterface(_INTERFACE_ID_ERC721);\r\n        _registerInterface(_INTERFACE_ID_ERC721_METADATA);\r\n        _registerInterface(_INTERFACE_ID_ERC721_ENUMERABLE);\r\n\r\n    }\r\n\r\n    /**\r\n     * @dev See {IERC721-balanceOf}.\r\n     */\r\n    function balanceOf(address owner) public view override returns (uint256) {\r\n        require(owner != address(0), \"ERC721: balance query for the zero address\");\r\n\r\n        return _holderTokens[owner].length();\r\n    }\r\n\r\n    /**\r\n     * @dev See {IERC721-ownerOf}.\r\n     */\r\n    function ownerOf(uint256 tokenId) public view override returns (address) {\r\n        return _tokenOwners.get(tokenId, \"ERC721: owner query for nonexistent token\");\r\n    }\r\n\r\n\r\n    /**\r\n     * @dev Returns Initial Owner address of the MarsPool Land address at index.\r\n     */\r\n    function initialOwnerOf(uint256 tokenId) public view override returns (address initialOwner) {\r\n        return _initialOwners.get(tokenId, \"ERC721: owner query for nonexistent token\");\r\n    }\r\n\r\n\r\n    /**\r\n     * @dev See {IERC721Metadata-name}.\r\n     */\r\n    function name() public view override returns (string memory) {\r\n        return _name;\r\n    }\r\n\r\n    /**\r\n     * @dev See {IERC721Metadata-symbol}.\r\n     */\r\n    function symbol() public view override returns (string memory) {\r\n        return _symbol;\r\n    }\r\n\r\n    /**\r\n     * @dev See {IERC721Enumerable-tokenOfOwnerByIndex}.\r\n     */\r\n    function tokenOfOwnerByIndex(address owner, uint256 index) public view override returns (uint256) {\r\n        return _holderTokens[owner].at(index);\r\n    }\r\n\r\n    /**\r\n     * @dev See {IERC721Enumerable-totalSupply}.\r\n     */\r\n    function totalSupply() public view override returns (uint256) {\r\n        // _tokenOwners are indexed by tokenIds, so .length() returns the number of tokenIds\r\n        return _tokenOwners.length();\r\n    }\r\n\r\n    /**\r\n     * @dev See {IERC721Enumerable-tokenByIndex}.\r\n     */\r\n    function tokenByIndex(uint256 index) public view override returns (uint256) {\r\n        (uint256 tokenId, ) = _tokenOwners.at(index);\r\n        return tokenId;\r\n    }\r\n\r\n    /**\r\n     * @dev Returns name of the MarsPool Land OwnerName at index.\r\n     */\r\n    function tokenNameByIndex(uint256 index) public view returns (string memory) {\r\n        return _tokenName[index];\r\n    }\r\n\r\n    /**\r\n     * @dev Returns if the Owner Name has been reserved.\r\n     */\r\n    function isNameReserved(string memory nameString) public view returns (bool) {\r\n        return _nameReserved[toLower(nameString)];\r\n    }\r\n\r\n    /**\r\n     * @dev Returns if the NFT has been minted before reveal phase\r\n     */\r\n    function isMintedBeforeReveal(uint256 index) public view override returns (bool) {\r\n        return _mintedBeforeReveal[index];\r\n    }\r\n\r\n    /**\r\n     * @dev Gets current MarsPool Land Price\r\n     */\r\n    function getNFTPrice() public view returns (uint256) {\r\n        require(block.timestamp >= SALE_START_TIMESTAMP, \"Sale has not started\");\r\n        require(totalSupply() < MAX_PUBLIC_NFT, \"Sale has already ended\");\r\n\r\n        uint currentSupply = totalSupply();\r\n\t\t\r\n        if (currentSupply >= 1779) {\r\n            return 10000000000000000000; \t// 1780 - 1782 \t10 ETH\r\n        } else if (currentSupply >= 1529) {\r\n            return 2600000000000000000; \t// 1530 - 1779 \t\t2.6 ETH\r\n        } else if (currentSupply >= 1179) {\r\n            return 1400000000000000000; \t// 1180  - 1529 \t1.4 ETH\r\n        } else if (currentSupply >= 789) {\r\n            return 900000000000000000; \t\t// 790 - 1179 \t\t0.9 ETH\r\n        } else if (currentSupply >= 449) {\r\n            return 500000000000000000; \t\t// 450 - 789 \t\t0.5 ETH\r\n        } else if (currentSupply >= 199) {\r\n            return 300000000000000000; \t\t// 200 - 449 \t\t0.3 ETH\r\n        } else {\r\n            return 100000000000000000; \t\t// 0 - 199 \t\t\t0.1 ETH \r\n        }\r\n    }\r\n\r\n    /**\r\n    * @dev Mints MarsPool Lands\r\n    */\r\n    function mintNFT(uint256 numberOfNfts) public payable {\r\n        require(totalSupply() < MAX_PUBLIC_NFT, \"Sale has already ended\");\r\n        require(numberOfNfts > 0, \"You may need to buy atleast 1 LAND\");\r\n        require(numberOfNfts <= 5, \"You may not be able buy more than 5 LANDs at once\");\r\n        require(totalSupply().add(numberOfNfts) <= MAX_PUBLIC_NFT, \"Exceeds MAX_PUBLIC_NFT\");\r\n        require(getNFTPrice().mul(numberOfNfts) == msg.value, \"BSC value sent is not correct\");\r\n\r\n        for (uint i = 0; i < numberOfNfts; i++) {\r\n            uint mintIndex = totalSupply();\r\n            if (block.timestamp < REVEAL_TIMESTAMP) {\r\n                _mintedBeforeReveal[mintIndex] = true;\r\n            }\r\n            _safeMint(msg.sender, mintIndex);\r\n        }\r\n        \r\n        SALE_BALANCE = SALE_BALANCE + msg.value;\r\n\r\n        /**\r\n        * Source of randomness. Theoretical miner withhold manipulation possible but should be sufficient in a pragmatic sense\r\n        */\r\n        if (startingIndexBlock == 0 && (totalSupply() == MAX_NFT_SUPPLY || block.timestamp >= REVEAL_TIMESTAMP)) {\r\n            startingIndexBlock = block.number;\r\n        }\r\n    }\r\n\r\n\r\n    /**\r\n    * @dev Rental Deposit for a MarsPool Land by a new Tenant;\r\n\r\n    */\r\n    function rentDeposit(uint256 tokenId) public payable {\r\n        \r\n         require(_isOnRent[tokenId] != true,\" NFT is not available for Rent !\" );\r\n         // Only one deposit at a time\r\n         require(_tenantDeposit[tokenId] == 0,\" Already a tenant is waiting for rental approval !\" );\r\n         require(msg.value > 0,\" Deposit cannot be zero !\" );\r\n         \r\n         _tenant[tokenId] = msg.sender;        // Potential Tenenant\r\n         _tenantDeposit[tokenId] = msg.value;  // Amount sent as Deposit\r\n    }\r\n    \r\n    /**\r\n    * @dev Withdraw anytime before rental agreement approved\r\n    */\r\n    function withdrawDeposit(uint256 tokenId) public {\r\n        \r\n        require(msg.sender == _tenant[tokenId],\" You don't have any rental deposits !\" );\r\n        require(_isOnRent[tokenId] == false,\" Your rental agreement is in progress !\" );\r\n        \r\n\r\n        // If rental agreement is still not started then transfer the deposit        \r\n        msg.sender.transfer(_tenantDeposit[tokenId]);\r\n        \r\n        _tenantDeposit[tokenId] = 0; // Reset amount to zero\r\n        _tenant[tokenId] = address(0);        \r\n    }  \r\n    \r\n\r\n\r\n    \r\n    /**\r\n     * @dev Returns amount deposited by potential tenant at index.\r\n     */\r\n    function depositByIndex(uint256 index) public view returns (address,uint256) {\r\n        return (_tenant[index],_tenantDeposit[index]);\r\n    }\r\n    \r\n    /**\r\n     * @dev Retunrs the token id if there is an agreement for the address\r\n     */ \r\n    function getAgreementByAddress(address tenantAddress) public view returns (uint256)\r\n    {\r\n        return (_agreementTenantAddress[tenantAddress]);\r\n    }     \r\n\r\n    /**\r\n     * @dev Returns Agreement between owner and tenant for approval\r\n     *  _rent_start[tokenId] = start_time;\r\n        _rent_end[tokenId] = end_time;\r\n     */ \r\n    function getAgreement(uint256 index) public view returns (address, uint256, uint256,uint256) {\r\n        \r\n        // True if expired & false if still valid\r\n        uint256 isExpired = ((_agreementExpiry[index] < block.timestamp)) ? 1:0;\r\n\r\n        return (_agreementTenant[index], _rent_start[index], _rent_end[index], isExpired);\r\n    }        \r\n    \r\n    /**\r\n     * @dev Returns Owner name of Land at index.\r\n     *     function tenantOf(uint256 index) public view override returns (address tenantAddress) \r\n     */\r\n    function tenantOf(uint256 index) public view override returns (address tenantAddress)  {\r\n\r\n        if(block.timestamp > _rent_end[index] || _isOnRent[index] == false)\r\n        {\r\n            return address(0);\r\n        }\r\n        return _approvedTenant[index];\r\n    }\r\n    \r\n    /**\r\n    * @dev Approve the agreement between the Owner and Tenant\r\n    */\r\n    function ApproveAgreement(uint256 tokenId) public {\r\n        \r\n        require(msg.sender == _tenant[tokenId],\" You don't have any rental deposits for the LAND id !\" );\r\n        require(msg.sender == _agreementTenant[tokenId],\" Request LAND owner for rental agreement !\" );\r\n        require(_isOnRent[tokenId] != true,\" Your rental agreement is in progress !\" );\r\n        require(_agreementExpiry[tokenId] > block.timestamp, \"Agreement already expired !\");\r\n\r\n        _tenant[tokenId] = address(0);           //Set by Tenant\r\n        _agreementTenant[tokenId] = address(0);  // Agreement Tenant set by owner\r\n        _approvedTenant[tokenId] = msg.sender;  // Now,tenant  will start getting the revenue\r\n        _isOnRent[tokenId] = true;\r\n\r\n    }  \r\n        \r\n    \r\n    /**\r\n     * @dev Set the rental period and tenant for the MarsPool Land tokenId\r\n     */\r\n    function rentalAgreement(uint256 tokenId, uint256 start_time , uint256 end_time, address agreementTenant) public {\r\n        address owner = ownerOf(tokenId);\r\n        \r\n        require(msg.sender == owner, \"ERC721: caller is not the owner\");\r\n        require(block.timestamp < start_time, \"Rental start time should be in future !\");\r\n        require(block.timestamp < end_time, \"Rental end time should be in future !\");\r\n        require(start_time < end_time, \"Start Time cannot be more than EndTime !\");\r\n\r\n        require(owner != agreementTenant, \"You cannot rent yourself !\");        \r\n        \r\n\r\n        if(_approvedTenant[tokenId] != address(0)) // Claim Rent for approved agreement\r\n        {\r\n             //Claim any pending rental \r\n            if(_tenantDeposit[tokenId] > 0)\r\n            {\r\n                msg.sender.transfer(_tenantDeposit[tokenId]);\r\n                _tenantDeposit[tokenId] = 0; // Reset amount to zero\r\n            }\r\n        }\r\n        \r\n        // Check is there is any expired tenancy \r\n        if(block.timestamp > _rent_end[tokenId])\r\n        {\r\n            _approvedTenant[tokenId] = address(0);  // Remove the tenant\r\n            _isOnRent[tokenId] = false;\r\n            _agreementTenant[tokenId] = address(0);\r\n            _agreementTenantAddress[agreementTenant] = 0; // Reset the Token id \r\n        }   \r\n       \r\n       //require(_agreementExpiry[tokenId] < block.timestamp, \"There is an agreement already, wait for expiry !\");\r\n       \r\n       if(_agreementTenant[tokenId] == address(0))\r\n       {\r\n        _approvedTenant[tokenId] = address(0);\r\n        _rent_start[tokenId] = start_time;\r\n        _rent_end[tokenId] = end_time;\r\n        _agreementExpiry[tokenId] = block.timestamp + (15 * 60); // 15 minutes from now\r\n        _agreementTenant[tokenId] = agreementTenant;\r\n        _agreementTenantAddress[agreementTenant] = tokenId;\r\n        emit AgreementReady(tokenId, agreementTenant);\r\n       } \r\n       else\r\n       {\r\n        emit AgreementExist(tokenId);\r\n       }\r\n    }   \r\n\r\n    /**\r\n     * @dev Finalize starting index\r\n     */\r\n    function finalizeStartingIndex() public {\r\n        require(startingIndex == 0, \"Starting index is already set\");\r\n        require(startingIndexBlock != 0, \"Starting index block must be set\");\r\n        \r\n        startingIndex = uint(blockhash(startingIndexBlock)) % MAX_NFT_SUPPLY;\r\n        // Just a sanity case in the worst case if this function is called late (EVM only stores last 256 block hashes)\r\n        if (block.number.sub(startingIndexBlock) > 255) {\r\n            startingIndex = uint(blockhash(block.number-1)) % MAX_NFT_SUPPLY;\r\n        }\r\n        // Prevent default sequence\r\n        if (startingIndex == 0) {\r\n            startingIndex = startingIndex.add(1);\r\n        }\r\n    }\r\n\r\n    /**\r\n     * @dev Owner Name change for MarsPool Land at tokenId\r\n     */\r\n    function changeName(uint256 tokenId, string memory newName) public {\r\n        address owner = ownerOf(tokenId);\r\n\r\n        require(_msgSender() == owner, \"ERC721: caller is not the owner\");\r\n        require(validateName(newName) == true, \"Not a valid new name\");\r\n        require(sha256(bytes(newName)) != sha256(bytes(_tokenName[tokenId])), \"New name is same as the current one\");\r\n        require(isNameReserved(newName) == false, \"Name already reserved\");\r\n\r\n        IERC20(_nctAddress).transferFrom(msg.sender, address(this), NAME_CHANGE_PRICE);\r\n        // If already named, dereserve old name\r\n        if (bytes(_tokenName[tokenId]).length > 0) {\r\n            toggleReserveName(_tokenName[tokenId], false);\r\n        }\r\n        toggleReserveName(newName, true);\r\n        _tokenName[tokenId] = newName;\r\n        IERC20(_nctAddress).burn(NAME_CHANGE_PRICE);\r\n        emit NameChange(tokenId, newName);\r\n    }\r\n\r\n    /**\r\n     * @dev Withdraw ether from this contract (Callable by owner)\r\n    */\r\n    function withdraw() onlyOwner public {\r\n        \r\n        // uint balance = address(this).balance;\r\n        \r\n        msg.sender.transfer(SALE_BALANCE);\r\n        \r\n        SALE_BALANCE = 0;\r\n    }\r\n    \r\n     /**\r\n     * @dev See {IERC721-approve}.\r\n     */\r\n    function approve(address to, uint256 tokenId) public virtual override {\r\n        address owner = ownerOf(tokenId);\r\n        require(to != owner, \"ERC721: approval to current owner\");\r\n\r\n        require(_msgSender() == owner || isApprovedForAll(owner, _msgSender()),\r\n            \"ERC721: approve caller is not owner nor approved for all\"\r\n        );\r\n\r\n        _approve(to, tokenId);\r\n    }\r\n\r\n    /**\r\n        Return the Block time useful in Localhost\r\n    **/\r\n    \r\n    function getBlockTime() public view returns (uint256)\r\n    {\r\n        return block.timestamp;\r\n    }\r\n    /**\r\n     * @dev See {IERC721-getApproved}.\r\n     */\r\n    function getApproved(uint256 tokenId) public view override returns (address) {\r\n        require(_exists(tokenId), \"ERC721: approved query for nonexistent token\");\r\n\r\n        return _tokenApprovals[tokenId];\r\n    }\r\n\r\n    /**\r\n     * @dev See {IERC721-setApprovalForAll}.\r\n     */\r\n    function setApprovalForAll(address operator, bool approved) public virtual override {\r\n        require(operator != _msgSender(), \"ERC721: approve to caller\");\r\n\r\n        _operatorApprovals[_msgSender()][operator] = approved;\r\n        emit ApprovalForAll(_msgSender(), operator, approved);\r\n    }\r\n\r\n    /**\r\n     * @dev See {IERC721-isApprovedForAll}.\r\n     */\r\n    function isApprovedForAll(address owner, address operator) public view override returns (bool) {\r\n        return _operatorApprovals[owner][operator];\r\n    }\r\n\r\n    /**\r\n     * @dev See {IERC721-transferFrom}.\r\n     */\r\n    function transferFrom(address from, address to, uint256 tokenId) public virtual override {\r\n        //solhint-disable-next-line max-line-length\r\n        require(_isApprovedOrOwner(_msgSender(), tokenId), \"ERC721: transfer caller is not owner nor approved\");\r\n\r\n        _transfer(from, to, tokenId);\r\n    }\r\n\r\n    /**\r\n     * @dev See {IERC721-safeTransferFrom}.\r\n     */\r\n    function safeTransferFrom(address from, address to, uint256 tokenId) public virtual override {\r\n        safeTransferFrom(from, to, tokenId, \"\");\r\n    }\r\n\r\n    /**\r\n     * @dev See {IERC721-safeTransferFrom}.\r\n     */\r\n    function safeTransferFrom(address from, address to, uint256 tokenId, bytes memory _data) public virtual override {\r\n        require(_isApprovedOrOwner(_msgSender(), tokenId), \"ERC721: transfer caller is not owner nor approved\");\r\n        _safeTransfer(from, to, tokenId, _data);\r\n    }\r\n\r\n    /**\r\n     * @dev Safely transfers `tokenId` token from `from` to `to`, checking first that contract recipients\r\n     * are aware of the ERC721 protocol to prevent tokens from being forever locked.\r\n     *\r\n     * `_data` is additional data, it has no specified format and it is sent in call to `to`.\r\n     *\r\n     * This internal function is equivalent to {safeTransferFrom}, and can be used to e.g.\r\n     * implement alternative mechanisms to perform token transfer, such as signature-based.\r\n     *\r\n     * Requirements:\r\n     *\r\n     * - `from` cannot be the zero address.\r\n     * - `to` cannot be the zero address.\r\n     * - `tokenId` token must exist and be owned by `from`.\r\n     * - If `to` refers to a smart contract, it must implement {IERC721Receiver-onERC721Received}, which is called upon a safe transfer.\r\n     *\r\n     * Emits a {Transfer} event.\r\n     */\r\n    function _safeTransfer(address from, address to, uint256 tokenId, bytes memory _data) internal virtual {\r\n        _transfer(from, to, tokenId);\r\n        require(_checkOnERC721Received(from, to, tokenId, _data), \"ERC721: transfer to non ERC721Receiver implementer\");\r\n    }\r\n\r\n    /**\r\n     * @dev Returns whether `tokenId` exists.\r\n     *\r\n     * Tokens can be managed by their owner or approved accounts via {approve} or {setApprovalForAll}.\r\n     *\r\n     * Tokens start existing when they are minted (`_mint`),\r\n     * and stop existing when they are burned (`_burn`).\r\n     */\r\n    function _exists(uint256 tokenId) internal view returns (bool) {\r\n        return _tokenOwners.contains(tokenId);\r\n    }\r\n\r\n    /**\r\n     * @dev Returns whether `spender` is allowed to manage `tokenId`.\r\n     *\r\n     * Requirements:\r\n     *\r\n     * - `tokenId` must exist.\r\n     */\r\n    function _isApprovedOrOwner(address spender, uint256 tokenId) internal view returns (bool) {\r\n        require(_exists(tokenId), \"ERC721: operator query for nonexistent token\");\r\n        address owner = ownerOf(tokenId);\r\n        return (spender == owner || getApproved(tokenId) == spender || isApprovedForAll(owner, spender));\r\n    }\r\n\r\n    /**\r\n     * @dev Safely mints `tokenId` and transfers it to `to`.\r\n     *\r\n     * Requirements:\r\n     d*\r\n     * - `tokenId` must not exist.\r\n     * - If `to` refers to a smart contract, it must implement {IERC721Receiver-onERC721Received}, which is called upon a safe transfer.\r\n     *\r\n     * Emits a {Transfer} event.\r\n     */\r\n    function _safeMint(address to, uint256 tokenId) internal virtual {\r\n        _safeMint(to, tokenId, \"\");\r\n    }\r\n\r\n    /**\r\n     * @dev Same as {xref-ERC721-_safeMint-address-uint256-}[`_safeMint`], with an additional `data` parameter which is\r\n     * forwarded in {IERC721Receiver-onERC721Received} to contract recipients.\r\n     */\r\n    function _safeMint(address to, uint256 tokenId, bytes memory _data) internal virtual {\r\n        _mint(to, tokenId);\r\n        require(_checkOnERC721Received(address(0), to, tokenId, _data), \"ERC721: transfer to non ERC721Receiver implementer\");\r\n    }\r\n\r\n    /**\r\n     * @dev Mints `tokenId` and transfers it to `to`.\r\n     *\r\n     * WARNING: Usage of this method is discouraged, use {_safeMint} whenever possible\r\n     *\r\n     * Requirements:\r\n     *\r\n     * - `tokenId` must not exist.\r\n     * - `to` cannot be the zero address.\r\n     *\r\n     * Emits a {Transfer} event.\r\n     */\r\n    function _mint(address to, uint256 tokenId) internal virtual {\r\n        require(to != address(0), \"ERC721: mint to the zero address\");\r\n        require(!_exists(tokenId), \"ERC721: token already minted\");\r\n        require(totalSupply() < MAX_PUBLIC_NFT, \"Sale has already ended\");\r\n\r\n\r\n        _beforeTokenTransfer(address(0), to, tokenId);\r\n\r\n        _holderTokens[to].add(tokenId);\r\n\r\n        _tokenOwners.set(tokenId, to);\r\n        \r\n        _initialOwners.set(tokenId,to);\r\n\r\n        emit Transfer(address(0), to, tokenId);\r\n    }\r\n\r\n    /**\r\n     * @dev Destroys `tokenId`.\r\n     * The approval is cleared when the token is burned.\r\n     *\r\n     * Requirements:\r\n     *\r\n     * - `tokenId` must exist.\r\n     *\r\n     * Emits a {Transfer} event.\r\n     */\r\n    function _burn(uint256 tokenId) internal virtual {\r\n        address owner = ownerOf(tokenId);\r\n\r\n        _beforeTokenTransfer(owner, address(0), tokenId);\r\n\r\n        // Clear approvals\r\n        _approve(address(0), tokenId);\r\n\r\n        _holderTokens[owner].remove(tokenId);\r\n\r\n        _tokenOwners.remove(tokenId);\r\n        \r\n        _initialOwners.remove(tokenId);\r\n\r\n        emit Transfer(owner, address(0), tokenId);\r\n    }\r\n\r\n    /**\r\n     * @dev Transfers `tokenId` from `from` to `to`.\r\n     *  As opposed to {transferFrom}, this imposes no restrictions on msg.sender.\r\n     *\r\n     * Requirements:\r\n     *\r\n     * - `to` cannot be the zero address.\r\n     * - `tokenId` token must be owned by `from`.\r\n     *\r\n     * Emits a {Transfer} event.\r\n     */\r\n    function _transfer(address from, address to, uint256 tokenId) internal virtual {\r\n        require(ownerOf(tokenId) == from, \"ERC721: transfer of token that is not own\");\r\n        require(to != address(0), \"ERC721: transfer to the zero address\");\r\n\r\n        _beforeTokenTransfer(from, to, tokenId);\r\n\r\n        // Clear approvals from the previous owner\r\n        _approve(address(0), tokenId);\r\n\r\n        _holderTokens[from].remove(tokenId);\r\n        _holderTokens[to].add(tokenId);\r\n\r\n        _tokenOwners.set(tokenId, to);\r\n\r\n        emit Transfer(from, to, tokenId);\r\n    }\r\n\r\n\r\n    /**\r\n     * @dev Internal function to invoke {IERC721Receiver-onERC721Received} on a target address.\r\n     * The call is not executed if the target address is not a contract.\r\n     *\r\n     * @param from address representing the previous owner of the given token ID\r\n     * @param to target address that will receive the tokens\r\n     * @param tokenId uint256 ID of the token to be transferred\r\n     * @param _data bytes optional data to send along with the call\r\n     * @return bool whether the call correctly returned the expected magic value\r\n     */\r\n    function _checkOnERC721Received(address from, address to, uint256 tokenId, bytes memory _data)\r\n        private returns (bool)\r\n    {\r\n        if (!to.isContract()) {\r\n            return true;\r\n        }\r\n        bytes memory returndata = to.functionCall(abi.encodeWithSelector(\r\n            IERC721Receiver(to).onERC721Received.selector,\r\n            _msgSender(),\r\n            from,\r\n            tokenId,\r\n            _data\r\n        ), \"ERC721: transfer to non ERC721Receiver implementer\");\r\n        bytes4 retval = abi.decode(returndata, (bytes4));\r\n        return (retval == _ERC721_RECEIVED);\r\n    }\r\n\r\n    function _approve(address to, uint256 tokenId) private {\r\n        _tokenApprovals[tokenId] = to;\r\n        emit Approval(ownerOf(tokenId), to, tokenId);\r\n    }\r\n\r\n    /**\r\n     * @dev Hook that is called before any token transfer. This includes minting\r\n     * and burning.\r\n     *\r\n     * Calling conditions:\r\n     *\r\n     * - When `from` and `to` are both non-zero, ``from``'s `tokenId` will be\r\n     * transferred to `to`.\r\n     * - When `from` is zero, `tokenId` will be minted for `to`.\r\n     * - When `to` is zero, ``from``'s `tokenId` will be burned.\r\n     * - `from` cannot be the zero address.\r\n     * - `to` cannot be the zero address.\r\n     *\r\n     * To learn more about hooks, head to xref:ROOT:extending-contracts.adoc#using-hooks[Using Hooks].\r\n     */\r\n    function _beforeTokenTransfer(address from, address to, uint256 tokenId) internal virtual { }\r\n\r\n    /**\r\n     * @dev Reserves the name if isReserve is set to true, de-reserves if set to false\r\n     */\r\n    function toggleReserveName(string memory str, bool isReserve) internal {\r\n        _nameReserved[toLower(str)] = isReserve;\r\n    }\r\n\r\n    /**\r\n     * @dev Converts the string to lowercase\r\n     */\r\n    function toLower(string memory str) public pure returns (string memory){\r\n        bytes memory bStr = bytes(str);\r\n        bytes memory bLower = new bytes(bStr.length);\r\n        for (uint i = 0; i < bStr.length; i++) {\r\n            // Uppercase character\r\n            if ((uint8(bStr[i]) >= 65) && (uint8(bStr[i]) <= 90)) {\r\n                bLower[i] = bytes1(uint8(bStr[i]) + 32);\r\n            } else {\r\n                bLower[i] = bStr[i];\r\n            }\r\n        }\r\n        return string(bLower);\r\n    }\r\n    \r\n    /**\r\n     * @dev Check if the name string is valid (Alphanumeric and spaces without leading or trailing space)\r\n     */\r\n    function validateName(string memory str) public pure returns (bool){\r\n        bytes memory b = bytes(str);\r\n        if(b.length < 1) return false;\r\n        if(b.length > 25) return false; // Cannot be longer than 25 characters\r\n        if(b[0] == 0x20) return false; // Leading space\r\n        if (b[b.length - 1] == 0x20) return false; // Trailing space\r\n\r\n        bytes1 lastChar = b[0];\r\n\r\n        for(uint i; i<b.length; i++){\r\n            bytes1 char = b[i];\r\n\r\n            if (char == 0x20 && lastChar == 0x20) return false; // Cannot contain continous spaces\r\n\r\n            if(\r\n                !(char >= 0x30 && char <= 0x39) && //9-0\r\n                !(char >= 0x41 && char <= 0x5A) && //A-Z\r\n                !(char >= 0x61 && char <= 0x7A) && //a-z\r\n                !(char == 0x20) //space\r\n            )\r\n                return false;\r\n\r\n            lastChar = char;\r\n        }\r\n\r\n        return true;\r\n    }   \r\n}",
  "sourcePath": "C:/Users/Admin/Desktop/MoonPoolxyz/HashMask/waheed/MarsPool-Box/contracts/HelloWorld.sol",
  "compiler": {
    "name": "solc",
    "version": "0.7.0+commit.9e61f92b.Emscripten.clang"
  },
  "schemaVersion": "3.3.4",
  "updatedAt": "2021-04-04T12:47:00.030Z",
  "devdoc": {
    "details": "Extends ERC721 Non-Fungible Token Standard basic implementation",
    "kind": "dev",
    "methods": {
      "ApproveAgreement(uint256)": {
        "details": "Approve the agreement between the Owner and Tenant"
      },
      "approve(address,uint256)": {
        "details": "See {IERC721-approve}."
      },
      "balanceOf(address)": {
        "details": "See {IERC721-balanceOf}."
      },
      "changeName(uint256,string)": {
        "details": "Owner Name change for MarsPool Land at tokenId"
      },
      "constructor": {
        "details": "Initializes the contract by setting a `name` and a `symbol` to the token collection."
      },
      "depositByIndex(uint256)": {
        "details": "Returns amount deposited by potential tenant at index."
      },
      "finalizeStartingIndex()": {
        "details": "Finalize starting index"
      },
      "getAgreement(uint256)": {
        "details": "Returns Agreement between owner and tenant for approval  _rent_start[tokenId] = start_time; _rent_end[tokenId] = end_time;"
      },
      "getAgreementByAddress(address)": {
        "details": "Retunrs the token id if there is an agreement for the address"
      },
      "getApproved(uint256)": {
        "details": "See {IERC721-getApproved}."
      },
      "getNFTPrice()": {
        "details": "Gets current MarsPool Land Price"
      },
      "initialOwnerOf(uint256)": {
        "details": "Returns Initial Owner address of the MarsPool Land address at index."
      },
      "isApprovedForAll(address,address)": {
        "details": "See {IERC721-isApprovedForAll}."
      },
      "isMintedBeforeReveal(uint256)": {
        "details": "Returns if the NFT has been minted before reveal phase"
      },
      "isNameReserved(string)": {
        "details": "Returns if the Owner Name has been reserved."
      },
      "mintNFT(uint256)": {
        "details": "Mints MarsPool Lands"
      },
      "name()": {
        "details": "See {IERC721Metadata-name}."
      },
      "owner()": {
        "details": "Returns the address of the current owner."
      },
      "ownerOf(uint256)": {
        "details": "See {IERC721-ownerOf}."
      },
      "renounceOwnership()": {
        "details": "Leaves the contract without owner. It will not be possible to call `onlyOwner` functions anymore. Can only be called by the current owner. NOTE: Renouncing ownership will leave the contract without an owner, thereby removing any functionality that is only available to the owner."
      },
      "rentDeposit(uint256)": {
        "details": "Rental Deposit for a MarsPool Land by a new Tenant;"
      },
      "rentalAgreement(uint256,uint256,uint256,address)": {
        "details": "Set the rental period and tenant for the MarsPool Land tokenId"
      },
      "safeTransferFrom(address,address,uint256)": {
        "details": "See {IERC721-safeTransferFrom}."
      },
      "safeTransferFrom(address,address,uint256,bytes)": {
        "details": "See {IERC721-safeTransferFrom}."
      },
      "setApprovalForAll(address,bool)": {
        "details": "See {IERC721-setApprovalForAll}."
      },
      "supportsInterface(bytes4)": {
        "details": "See {IERC165-supportsInterface}. Time complexity O(1), guaranteed to always use less than 30 000 gas."
      },
      "symbol()": {
        "details": "See {IERC721Metadata-symbol}."
      },
      "tenantOf(uint256)": {
        "details": "Returns Owner name of Land at index.     function tenantOf(uint256 index) public view override returns (address tenantAddress) "
      },
      "toLower(string)": {
        "details": "Converts the string to lowercase"
      },
      "tokenByIndex(uint256)": {
        "details": "See {IERC721Enumerable-tokenByIndex}."
      },
      "tokenNameByIndex(uint256)": {
        "details": "Returns name of the MarsPool Land OwnerName at index."
      },
      "tokenOfOwnerByIndex(address,uint256)": {
        "details": "See {IERC721Enumerable-tokenOfOwnerByIndex}."
      },
      "totalSupply()": {
        "details": "See {IERC721Enumerable-totalSupply}."
      },
      "transferFrom(address,address,uint256)": {
        "details": "See {IERC721-transferFrom}."
      },
      "transferOwnership(address)": {
        "details": "Transfers ownership of the contract to a new account (`newOwner`). Can only be called by the current owner."
      },
      "validateName(string)": {
        "details": "Check if the name string is valid (Alphanumeric and spaces without leading or trailing space)"
      },
      "withdraw()": {
        "details": "Withdraw ether from this contract (Callable by owner)"
      },
      "withdrawDeposit(uint256)": {
        "details": "Withdraw anytime before rental agreement approved"
      }
    },
    "title": "MarsPool Land contract",
    "version": 1
  },
  "userdoc": {
    "kind": "user",
    "methods": {
      "getBlockTime()": {
        "notice": "Return the Block time useful in Localhost*"
      }
    },
    "version": 1
  }
}